:100000000C94AC090C94DD090C94DD090C94DD0909
:100010000C94DD090C94DD090C94DD090C94DD09C8
:100020000C94DD090C94DD090C94DD090C94DD09B8
:100030000C94DD090C94DD090C94DD090C94DD09A8
:100040000C94DD090C940B440C94DD090C94DD092F
:100050000C94DD090C94DD090C9401540C94595551
:100060000C94DD090C94E60D0C94DD090C94DD096B
:100070000C94DD090C94DD090C94DD090C94DD0968
:100080000C948B2D0C94DD090C94DD090C94DD0986
:100090000C94DD090C94DD090C94DD090C94DD0948
:1000A0000C94DD090C94DD090C94B82D0C94DD0939
:1000B0000C94DD090C94DD090C94DD090C94E52DFC
:1000C0000C94DD090C94DD090C94DD090C94DD0918
:1000D0000C94DD090C94DD090C94DD090C94DD0908
:1000E0000C94DD095B54685484549154AB54B85457
:1000F000D254D454D654D854E0547C5681568656A3
:1001000090569A561357A456AC56B456BE56C85677
:10011000D256E156EB561357F556FF56095734574A
:10012000375726572A5730576E573B573F57455733
:1001300049574D57535757575B576E576157655738
:100140006957084AD73B3BCE016E84BCBFFDC12F27
:100150003D6C74319ABD56833DDA3D00C77F11BEB8
:10016000D9E4BB4C3E916BAAAABE000000803F05BB
:10017000A84CCDB2D44EB93836A9020C50B99186EC
:1001800088083CA6AAAA2ABE000000803F00486159
:100190007264636F6465642044656661756C742085
:1001A00053657474696E6773204C6F616465640095
:1001B0002044002049002020204D333031205000C1
:1001C0005049442073657474696E67733A00205A0D
:1001D0000020590020204D323036205800486F6DE5
:1001E00065206F666673657420286D6D293A00205E
:1001F0004500205A002058002042002054002020B2
:100200004D323035205300416476616E6365642061
:100210007661726961626C65733A20533D4D696E17
:1002200020666565647261746520286D6D2F732981
:100230002C20543D4D696E2074726176656C206689
:100240006565647261746520286D6D2F73292C209B
:10025000423D6D696E696D756D207365676D656E84
:10026000742074696D6520286D73292C20583D6DAC
:100270006178696D756D205859206A65726B202808
:100280006D6D2F73292C20205A3D6D6178696D7535
:100290006D205A206A65726B20286D6D2F73292C92
:1002A0002020453D6D6178696D756D2045206A653A
:1002B000726B20286D6D2F73290020540020204D73
:1002C000323034205300416363656C657261746938
:1002D0006F6E3A20533D616363656C65726174694A
:1002E0006F6E2C20543D726574726163742061637B
:1002F00063656C65726174696F6E00204500205AF9
:100300000020590020204D3230312058004D6178B6
:10031000696D756D20416363656C65726174696FA9
:100320006E20286D6D2F7332293A00204500205A27
:100330000020590020204D3230332058004D617884
:10034000696D756D206665656472617465732028DA
:100350006D6D2F73293A00204500205A0020590066
:1003600020204D3932205800537465707320706519
:100370007220756E69743A005072696E74657220ED
:1003800073746F707065642064756520746F206588
:1003900072726F72732E20466978207468652065CA
:1003A00072726F7220616E6420757365204D3939E9
:1003B0003920746F20726573746172742E20285412
:1003C000656D706572617475726520697320726500
:1003D0007365742E2053657420697420616674659A
:1003E000722072657374617274696E67290050724D
:1003F000696E7465722068616C7465642E206B6927
:100400006C6C28292063616C6C656421006F6B0043
:10041000526573656E643A20002200556E6B6E6FF4
:10042000776E20636F6D6D616E643A2022005A20F2
:100430004F6666736574203A20007A5F6D61783A82
:1004400020007A5F6D696E3A20005A204F6666730D
:100450006574005A204F6666736574206F6B006F79
:1004600031313131313131006F3030303030303076
:10047000006F6B006F4D470A00795F6D696E3A201F
:1004800000785F6D696E3A2000205A3A0020593A90
:100490000020436F756E7420583A200020453A00C2
:1004A000205A3A0020593A00583A004649524D57CE
:1004B0004152455F4E414D453A4D61726C696E2027
:1004C000312E302E322B20446576656C6F706D6551
:1004D0006E742046726F6D20417263686976652084
:1004E000534F555243455F434F44455F55524C3A35
:1004F00068747470733A2F2F6769746875622E631D
:100500006F6D2F4D61726C696E4669726D776172A5
:10051000652F4D61726C696E2050524F544F434F9E
:100520004C5F56455253494F4E3A312E30204D4183
:100530004348494E455F545950453A4D656E646590
:100540006C2045585452554445525F434F554E54C4
:100550003A3120555549443A30303030303030301F
:100560002D303030302D303030302D303030302D97
:100570003030303030303030303030300A002042CF
:100580003A0020453A00543A0020573A0020453AB4
:1005900000543A002042403A0020403A00202F0008
:1005A0003A00205400202F0020423A00202F006FF4
:1005B0006B20543A002569206D696E2C2025692036
:1005C000736563006F4D47006F4D47006F4D4700E7
:1005D0006F4D47006F4D47006F4D47006F4D47000F
:1005E0006F4D47005072696E7465722073746F703E
:1005F0007065642064756520746F206572726F7217
:10060000732E2046697820746865206572726F7257
:1006100020616E6420757365204D39393920746FFF
:1006200020726573746172742E202854656D706534
:100630007261747572652069732072657365742EBA
:100640002053657420697420616674657220726538
:100650007374617274696E6729004E6F204C696E05
:1006600065204E756D6265722077697468206368D5
:1006700065636B73756D2C204C617374204C696ECF
:10068000653A20004E6F20436865636B73756D207B
:1006900077697468206C696E65206E756D6265722D
:1006A0002C204C617374204C696E653A200063689D
:1006B00065636B73756D206D69736D617463682C10
:1006C000204C617374204C696E653A20004C696E51
:1006D00065204E756D626572206973206E6F74209F
:1006E0004C617374204C696E65204E756D62657245
:1006F0002B312C204C617374204C696E653A2000BC
:100700004D313130002020506C616E6E6572427543
:100710006666657242797465733A20002046726598
:1007200065204D656D6F72793A20005365702031F8
:1007300039203230313600436F6D70696C65643A30
:100740002000286E6F6E652C2064656661756C7480
:1007500020636F6E6669672900207C20417574688C
:100760006F723A20005365702031392032303136B3
:100770002031303A30353A353800204C61737420DE
:10078000557064617465643A200020312E302E3239
:100790002B004D61726C696E0020536F6674776137
:1007A00072652052657365740020576174636864D4
:1007B0006F67205265736574002042726F776E20F8
:1007C0006F75742052657365740020457874657286
:1007D0006E616C20526573657400506F7765725559
:1007E0007000737461727400FFFFFF0000A040008E
:1007F00000A040000000400000AF430000AF4300F5
:10080000001644000000000000000000000000008E
:1008100000AF430000AF430000164400000000009A
:10082000000000000000006563686F3A00457272C6
:100830006F723A0020746F6F206C6F6E672065785E
:1008400074727573696F6E2070726576656E74650B
:10085000640020636F6C6420657874727573696FCF
:100860006E2070726576656E7465640045303A205E
:10087000005A3A2000593A2000583A20004D53318E
:100880002C4D53322050696E730A00205A3A0020D2
:10089000593A0020583A00656E6473746F70732083
:1008A0006869743A200024F4D43050C38E20C2A268
:1008B0004017828B7011127A910D816CD90AA86150
:1008C000E108C7586607615143061E4B5D05C145E7
:1008D000A7041A411104093D9803713931034036C8
:1008E000DB0265339102D4305402802E1D02632C4A
:1008F000EE01752AC501B028A001102781018F25BE
:1009000064012B244B01E0223401AC211F018D2016
:100910000D01801FFC00841EED00971DDF00B81C38
:10092000D200E61BC600201BBC00641AB200B2193C
:10093000A8000A19A0006A189900D1179100401761
:100940008B00B516840031167E00B31579003A1578
:100950007300C7146F0058146A00EE136600881302
:10096000630025135E00C7125B006C12570015125E
:100970005400C111510070114F0021114B00D610CD
:1009800049008D1047004610440002104200C00F7D
:100990004000800F3E00420F3C00060F3B00CB0E94
:1009A0003800930E37005C0E3500270E3400F30D2F
:1009B0003200C10D3100900D3000600D2E00320D5F
:1009C0002D00050D2C00D90C2B00AE0C2900850C38
:1009D00029005C0C2700350C27000E0C2600E80BC4
:1009E0002400C40B2400A00B23007D0B23005A0B12
:1009F0002100390B2100180B2000F80A1F00D90A2A
:100A00001E00BB0A1E009D0A1D00800A1D00630A0D
:100A10001C00470A1B002C0A1B00110A1A00F709C8
:100A20001A00DD091900C4091900AB09190092095F
:100A300017007B091800630917004C0916003609D6
:100A40001600200916000A091500F5081500E0082F
:100A50001400CC081400B8081400A408140090086E
:100A600013007D0812006B08130058081200460896
:100A700012003408110023081100120811000108A7
:100A80001100F0071000E0071000D0071000C007A9
:100A90001000B0070F00A107100091070E00830798
:100AA0000F0074070F0065070E0057070E00490777
:100AB0000E003B070D002E070E0020070D00130748
:100AC0000D0006070D00F9060C00ED060D00E0060E
:100AD0000C00D4060C00C8060C00BC060C00B006C6
:100AE0000C00A4060B0099060C008D060B00820674
:100AF0000B0077060B006C060B0061060A00570618
:100B00000B004C060A0042060A0038060A002E06B0
:100B10000A0024060A001A060A0010060900070641
:100B20000A00FD050900F4050900EB050900E205CE
:100B30000900D9050900D0050900C7050900BE054F
:100B40000900B5050800AD050800A50509009C05CC
:100B50000800940508008C050800840508007C0541
:100B60000800740508006C050700650508005D05B0
:100B70000700560508004E05070047050700400519
:100B8000080038050700310507002A05070023057E
:100B900007001C050600160507000F0507000805DD
:100BA000060002050700FB040600F5040700EE043A
:100BB0000600E8040600E2040700DB040600D50492
:100BC0000600CF040600C9040600C3040600BD04E5
:100BD0000600B7040600B1040500AC040600A60434
:100BE0000600A00405009B0406009504050090047F
:100BF00006008A04050085040500800406007A04C6
:100C0000050075040500700405006B04050066040A
:100C10000500610405005C0405005704050052044A
:100C200005004D04050048040500430405003E048A
:100C300004003A04050035040500300404002C04C7
:100C4000050027040400230405001E0404001A0400
:100C5000040016040500110404000D040400090436
:100C600005000404040000040400FC030400F8036D
:100C70000400F4030400F0030400EC030400E803A0
:100C80000400E4030400E0030400DC030400D803D0
:100C90000400D4030400D0030400CC030400C80300
:100CA0000300C503030024F404D9201BC40C5C0E0C
:100CB0009804C4095F0265077101F405F900FB049B
:100CC000B30048048700C1036900580355000303BB
:100CD0004500BE023A008402310053022A00290274
:100CE000250004022000E4011C00C8011900AF0126
:100CF00017009801140084011300710110006101B4
:100D0000100051010E0043010D0036010B002B01B4
:100D10000B0020010B00150109000C010900030163
:100D20000800FB000800F3000800EB000700E400E7
:100D30000600DE000600D8000600D2000600CC0047
:100D40000500C7000500C2000500BD000400B90091
:100D50000400B5000400B1000400AD000400A900C7
:100D60000400A5000300A20003009F0004009B00F4
:100D70000300980003009500020093000300900018
:100D800003008D0002008B00030088000200860033
:100D9000020084000300810002007F0002007D0049
:100DA00002007B000200790002007700010076005B
:100DB00002007400020072000100710002006F0066
:100DC00002006D0001006C0002006A000100690071
:100DD0000200670001006600010065000100640078
:100DE00002006200010061000100600001005F007C
:100DF00002005D0001005C0001005B0001005A0080
:100E00000100590001005800010057000100560080
:100E10000100550001005400010053000000530080
:100E200001005200010051000100500001004F007C
:100E300001004E0000004E0001004D0001004C007A
:100E400001004B0000004B0001004A000100490076
:100E50000100480000004800010047000100460072
:100E6000000046000100450000004500010044006C
:100E70000100430000004300010042000000420066
:100E800001004100000041000100400001003F005E
:100E900000003F0001003E0000003E0001003D0058
:100EA00000003D0001003C0000003C0000003C0050
:100EB00001003B0000003B0001003A0000003A0046
:100EC000010039000000390001003800000038003E
:100ED0000000380001003700000037000100360034
:100EE000000036000000360001003500000035002B
:100EF0000000350001003400000034000000340020
:100F00000100330000003300000033000100320014
:100F1000000032000000320001003100000031000A
:100F200000003100010030000000300000003000FF
:100F300001002F0000002F0000002F0000002F00F4
:100F400001002E0000002E0000002E0001002D00E8
:100F500000002D0000002D0000002D0001002C00DD
:100F600000002C0000002C0000002C0001002B00D1
:100F700000002B0000002B0000002B0001002A00C5
:100F800000002A0000002A0000002A0001002900B9
:100F900000002900000029000000290000002900AD
:100FA00001002800000028000000280000002800A0
:100FB0000000280001002700000027000000270093
:100FC0000000270000002700010026000000260086
:100FD0000000260000002600000026000100250079
:100FE000000025000000250000002500000025006D
:100FF000000025000100240000002400000024005F
:101000000000240000002400010023000000230051
:101010000000230000002300000023000000230044
:101020000000230001002200000022000000220036
:101030000000220000002200000022000100210028
:10104000000021000000210000002100000021001C
:10105000000021000000210001002000000020000D
:101060000000200000002000000020000000200000
:10107000000020000000200001001F0000001F00F1
:1010800000001F0000001F0000001F0000001F00E4
:1010900000001F0001001E0000001E0000001E00D6
:1010A00000001E0000003A20457874727564657275
:1010B000207377697463686564206F66662E204DBF
:1010C000494E54454D502074726967676572656476
:1010D0002021003A20457874727564657220737718
:1010E000697463686564206F66662E204D415854AC
:1010F000454D5020747269676765726564202100F0
:10110000504944204175746F74756E652066696E30
:101110006973686564212050757420746865206C5B
:10112000617374204B702C204B6920616E64204BDE
:101130006420636F6E7374616E74732066726F6D7A
:101140002061626F766520696E746F20436F6E66F2
:10115000696775726174696F6E2E6800504944202A
:101160004175746F74756E65206661696C65642184
:101170002074696D656F75740020403A006F6B20B4
:10118000543A006F6B20423A005049442041757434
:101190006F74756E65206661696C656421205465A5
:1011A0006D706572617475726520746F6F20686907
:1011B000676800204B643A2000204B693A200020E9
:1011C0004B703A200020436C61737369632050496F
:1011D0004420002054753A2000204B753A2000200E
:1011E0006D61783A2000206D696E3A200020643AE3
:1011F000200020626961733A200000000A0B020996
:101200000C0D0E08070304010000000000000000A0
:1012100000000000000000000000000000000000CE
:10122000000000000000121110000000000000008B
:1012300000000000000000000000000000000000AE
:1012400001021020200808102040102040800201D8
:1012500002010804020101020408102040808040BD
:1012600020100804020180040201804020100804BC
:10127000020108040201010204081020408001025A
:101280000408102040800505050507050808080822
:10129000020202020A0A080804040404010101010E
:1012A0000101010103030303030303030407070709
:1012B0000C0C0C0C0C0C0C0C0202020206060606AE
:1012C000060606060B0B0B0B0B0B0B0B000020008E
:1012D0002300260029002C002F003200000100000E
:1012E00003010601090100002200250028002B004F
:1012F0002E003100340002010000050108010B013D
:1013000000002100240027002A002D0030003300B7
:1013100001010000040107010A014E414E494E49F6
:101320005459494E46CDCCCC3D0AD7233C17B7D1B2
:101330003877CC2B329595E6241FB14F0A00002058
:10134000410000C84200401C4620BCBE4CCA1B0ED7
:101350005AAEC59D7400BE2C11241FBECFEFD1E242
:10136000DEBFCDBF00E00CBF14E0A0E0B2E0EAE4D5
:10137000F6EC00E00BBF02C007900D92A433B1075A
:10138000D9F72DE0A4E3B4E001C01D92A534B20763
:10139000E1F713E1C8E5D3E100E006C022970109B7
:1013A000FE010BBF0E94505DC635D10780E00807E3
:1013B000A9F70E944B580C9423630C940000CF9320
:1013C000DF93C7E2D8E0FE018491882341F0909139
:1013D000C00095FFFCCF8093C6003196F5CFE8E6BC
:1013E000F3E08491882341F09091C00095FFFCCFF9
:1013F0008093C6003196F5CF8091C00085FFFCCF69
:101400008AE08093C600FE018491E7E2F8E0882339
:1014100049F09091C00095FFFCCF8093C6003196B3
:101420008491F5CF4091800C5091810C6091820C99
:101430007091830C80E693E061D74091840C5091C9
:10144000850C6091860C7091870C8DE593E056D7E2
:101450004091880C5091890C60918A0C70918B0C92
:101460008AE593E04BD740918C0C50918D0C6091A4
:101470008E0C70918F0C87E593E040D78091C0006F
:1014800085FFFCCF8AE08093C600FE018491E7E2ED
:10149000F8E0882349F09091C00095FFFCCF80933D
:1014A000C60031968491F5CFEDE3F3E08491882373
:1014B00041F09091C00095FFFCCF8093C60031961B
:1014C000F5CF8091C00085FFFCCF8AE08093C600F5
:1014D000FE018491E7E2F8E0882349F09091C00092
:1014E00095FFFCCF8093C60031968491F5CF409153
:1014F000900C5091910C6091920C7091930C84E33C
:1015000093E0FCD64091940C5091950C6091960C10
:101510007091970C81E393E0F1D64091980C509133
:10152000990C60919A0C70919B0C8EE293E0E6D638
:1015300040919C0C50919D0C60919E0C70919F0C61
:101540008BE293E0DBD68091C00085FFFCCF8AE080
:101550008093C600FE018491E7E2F8E0882349F019
:101560009091C00095FFFCCF8093C6003196849186
:10157000F5CFEDE0F3E08491882341F09091C00035
:1015800095FFFCCF8093C6003196F5CF8091C000C7
:1015900085FFFCCF8AE08093C600FE018491E7E2DC
:1015A000F8E0882349F09091C00095FFFCCF80932C
:1015B000C60031968491F5CF4091700C5091710C1A
:1015C0006091720C7091730C84E093E0A8D6409106
:1015D000740C5091750C6091760C7091770C81E0D1
:1015E00093E09DD64091780C5091790C60917A0CE3
:1015F00070917B0C8EEF92E092D640917C0C5091D2
:101600007D0C60917E0C70917F0C8BEF92E087D601
:101610008091C00085FFFCCF8AE08093C600FE0168
:101620008491E7E2F8E0882349F09091C00095FFAB
:10163000FCCF8093C60031968491F5CFE6ECF2E0C2
:101640008491882341F09091C00095FFFCCF809356
:10165000C6003196F5CF8091C00085FFFCCF8AE0AF
:101660008093C600FE018491E7E2F8E0882349F008
:101670009091C00095FFFCCF8093C6003196849175
:10168000F5CF4091680C5091690C60916A0C709193
:101690006B0C8DEB92E032D64091640C5091650C4E
:1016A0006091660C7091670C8AEB92E027D680916E
:1016B000C00085FFFCCF8AE08093C600FE018491C4
:1016C000E7E2F8E0882349F09091C00095FFFCCF55
:1016D0008093C60031968491F5CFE7E0F2E08491E3
:1016E000882341F09091C00095FFFCCF8093C60005
:1016F0003196F5CF8091C00085FFFCCF8AE08093C2
:10170000C600FE018491E7E2F8E0882349F0909159
:10171000C00095FFFCCF8093C60031968491F5CF31
:1017200040916C0C50916D0C60916E0C70916F0C2F
:101730008EEF91E0E3D54091540C5091550C60919F
:10174000560C7091570C8BEF91E0D8D54091A00CBE
:101750005091A10C6091A20C7091A30C88EF91E0C4
:10176000DED54091600C5091610C6091620C7091DB
:10177000630C85EF91E0C2D540915C0C50915D0CFB
:1017800060915E0C70915F0C82EF91E0B7D5409153
:10179000580C5091590C60915A0C70915B0C8FEE63
:1017A00091E0ACD58091C00085FFFCCF8AE08093AA
:1017B000C600FE018491E7E2F8E0882349F09091A9
:1017C000C00095FFFCCF8093C60031968491F5CF81
:1017D000EDEDF1E08491882341F09091C00095FFF8
:1017E000FCCF8093C6003196F5CF8091C00085FF75
:1017F000FCCF8AE08093C600FE018491E7E2F8E026
:10180000882349F09091C00095FFFCCF8093C600DB
:1018100031968491F5CF4091AD065091AE0660911E
:10182000AF067091B00684ED91E068D54091B106A5
:101830005091B2066091B3067091B40681ED91E0CB
:101840005DD54091B5065091B6066091B70670918E
:10185000B8068EEC91E052D58091C00085FFFCCF98
:101860008AE08093C600FE018491E7E2F8E08823D5
:1018700049F09091C00095FFFCCF8093C60031964F
:101880008491F5CFE0ECF1E08491882341F09091D0
:10189000C00095FFFCCF8093C6003196F5CF8091B4
:1018A000C00085FFFCCF8AE08093C600FE01C49192
:1018B000E7E2F8E0CC2349F08091C00085FFFCCF3F
:1018C000C093C6003196C491F5CF40916602509105
:1018D0006702609168027091690286EB91E00ED513
:1018E000609162027091630280916402909165023E
:1018F0000E944A55AB01BC0183EB91E0FFD460919B
:101900005E0270915F0280916002909161020E947C
:101910005455AB01BC0180EB91E0F0D48091C00044
:1019200085FFFCCF8AE08093C600DF91CF910895B8
:10193000AF92BF92CF92DF92EF92FF920F931F93DD
:10194000CF93DF93CDB7DEB7E0970FB6F894DEBF45
:101950000FBECDBF80E1EAE6F2E0DE019196019094
:101960000D928A95E1F780E1EAE7F2E0DE01519617
:1019700001900D928A95E1F780E1EAE8F2E0DE015C
:10198000119601900D928A95E1F76E0181E2C80EE1
:10199000D11C80E8E82E8CE0F82E8E010F5E1F4FE0
:1019A00060E97CE0AE014F5F5F4F90E7A92E9CE0BD
:1019B000B92E20E030E0F60181919191A191B19191
:1019C0006F01F70181939193A193B1937F01F80186
:1019D00081919191A191B1918F01FB01819391939B
:1019E000A193B193BF01FA0181919191A191B1911C
:1019F000AF01F50181939193A193B1935F012F5FA3
:101A00003F4F24303105B9F60E94244380E090E036
:101A1000AAE7B5E48093680C9093690CA0936A0CD4
:101A2000B0936B0C8093640C9093650CA093660C40
:101A3000B093670C10926C0C10926D0C10926E0C9F
:101A400010926F0C80E29EE4A0E0B0E08093A00CC6
:101A50009093A10CA093A20CB093A30C1092540CE1
:101A60001092550C1092560C1092570C80E090E09A
:101A7000A0EAB1E48093600C9093610CA093620C97
:101A8000B093630C80935C0C90935D0CA0935E0C00
:101A9000B0935F0C80E090E0A0EAB0E48093580C33
:101AA0009093590CA0935A0CB0935B0C1092B5060E
:101AB0001092B6061092B7061092B8061092B106B0
:101AC0001092B2061092B3061092B4061092AD06B0
:101AD0001092AE061092AF061092B0068AE999E90C
:101AE000A1EBB1E48093660290936702A093680231
:101AF000B093690261E77DE38AE89FE30E94455560
:101B00006093620270936302809364029093650213
:101B100060E070E084EE92E40E944F5560935E02B4
:101B200070935F0280936002909361020E94344D33
:101B300080E090E0A0E8BFE380935A0290935B02BC
:101B4000A0935C02B0935D021092C90680E090E021
:101B5000A0E4B0E48093240290932502A09326028F
:101B6000B09327020E94881AE7E2F8E08491882364
:101B700041F09091C00095FFFCCF8093C600319654
:101B8000F5CFEEE8F1E08491882341F09091C00018
:101B900095FFFCCF8093C6003196F5CF8091C000B1
:101BA00085FFFCCF8AE08093C600E0960FB6F894DC
:101BB000DEBF0FBECDBFDF91CF911F910F91FF9080
:101BC000EF90DF90CF90BF90AF9008951F920F924B
:101BD0000FB60F9211240BB60F922F933F934F9392
:101BE0005F936F938F939F93EF93FF936091C600E2
:101BF0002091B5043091B604C90101968F779927D9
:101C00004091B7045091B8048417950741F0F90149
:101C1000EB5CFB4F60839093B6048093B504FF9117
:101C2000EF919F918F916F915F914F913F912F9184
:101C30000F900BBE0F900FBE0F901F9018959A013A
:101C4000AB01211581EE38074105510549F182E0CC
:101C50008093C00060E079E08DE390E00E941E5D1B
:101C60002150310941095109CA01B90122E030E08E
:101C700040E050E00E941E5D3093C5002093C400F8
:101C80008091C10080618093C1008091C100886013
:101C90008093C1008091C10080688093C100089545
:101CA0001092C00020E130E0E7CF2091B7043091DE
:101CB000B8048091B5049091B6048217930771F02F
:101CC000F901EB5CFB4F80812F5F3F4F2F7733276C
:101CD0003093B8042093B70490E008958FEF9FEFFE
:101CE00008958091B7049091B8049093B6048093BE
:101CF000B50408954F925F926F927F928F929F9258
:101D0000AF92BF92CF92DF92EF92FF920F931F9309
:101D1000CF93DF93CDB7DEB7A0970FB6F894DEBFB1
:101D20000FBECDBF5C014115510561057105E9F498
:101D300020E030E040E350E060E070E0A0960FB6B5
:101D4000F894DEBF0FBECDBFDF91CF911F910F91F1
:101D5000FF90EF90DF90CF90BF90AF909F908F90CB
:101D60007F906F905F904F905BC08E010F5F1F4F11
:101D7000C12CD12C76014801422E512C612C712CA2
:101D80008FEFC81AD80AE80AF80ACB01BA01A301F2
:101D900092010E94FC5CCA01F80161938F01A901C4
:101DA000BC01411551056105710551F7F1E0CF1AEC
:101DB000D108E108F108F401EC0DFD1D80818A30A5
:101DC00010F440E301C047E3480F552747FD509505
:101DD000652F752F20E030E0C50122D081E0C81AC0
:101DE000D108E108F108EFEFCE16DE06EE06FE069A
:101DF00011F7A0960FB6F894DEBF0FBECDBFDF91EE
:101E0000CF911F910F91FF90EF90DF90CF90BF90F7
:101E1000AF909F908F907F906F905F904F900895BC
:101E20002115310539F48091C00085FFFCCF409326
:101E3000C60008952A30310509F41CC05BCFCF934A
:101E4000DF93EC0120E030E04DE050E060E070E036
:101E5000E7DF20E030E04AE050E060E070E0CE01F3
:101E6000DF91CF91DDCF9A01AB01662757FD6095D9
:101E7000762FD6CFCF92DF92EF92FF92CF93DF9360
:101E8000EC016A017B0177FF0FC020E030E04DE2FA
:101E900050E060E070E0C4DFF094E094D094C0942F
:101EA000C11CD11CE11CF11C2AE0B701A601CE0126
:101EB000DF91CF91FF90EF90DF90CF901BCF211556
:101EC000310539F48091C00085FFFCCF4093C600F6
:101ED000089510CF9A01462F50E060E070E0EFCFF8
:101EE000CF93DF93EC019A01AB0160E070E0E7DF94
:101EF000CE01DF91CF91A3CF8F929F92AF92BF92ED
:101F0000CF92DF92EF92FF921F93CF93DF93EC017A
:101F10006A017B01122F20E030E0A901C701B60160
:101F20000E94335987FF0CC020E030E04DE250E0C2
:101F300060E070E0CE0174DFF7FAF094F7F8F09407
:101F4000B12C60E070E080E09FE3B11641F020E04A
:101F500030E040E251E40E943A59B394F6CF9B013D
:101F6000AC01C701B6010E945A586B017C010E9466
:101F7000A7594B015C010E94D3599B01AC01C701D9
:101F8000B6010E9459586B017C012AE0B501A401F9
:101F9000CE01B0DE112361F0E1E3F4E0819188230A
:101FA00039F09091C00095FFFCCF8093C600F6CF2A
:101FB000112319F120E030E040E251E4C701B601FD
:101FC0000E94085C6B017C010E94A2594B01AA246B
:101FD00097FCA094BA2CB501A401CE014BDFC5013A
:101FE000B4010E94D5599B01AC01C701B6010E9402
:101FF00059586B017C011150DBCFDF91CF911F91BC
:10200000FF90EF90DF90CF90BF90AF909F908F9018
:10201000089572CFFC016591759185919491089511
:102020002F923F924F925F926F927F928F929F92E8
:10203000AF92BF92CF92DF92EF92FF920F931F93D6
:10204000CF93DF9300D000D0CDB7DEB71C01FC01E9
:10205000E851F84F14919C01220F331F220F331FB8
:102060003E832D832754394F4901F9011082118293
:102070001282138225EC36E041EC56E06DEB76E0FF
:1020800089EB96E00E945B428D819E818950984F3A
:10209000C1DF6B017C01612F772767FD7095872F6A
:1020A000972F0E94D5592B013C012D813E812A5743
:1020B000394F590120E030E040EC5FE3C701B60141
:1020C0000E94085CA30192010E94085CF5016083F4
:1020D0007183828393832D813E81225D3D4F3C83BA
:1020E0002B83F901608171818281938160930F025A
:1020F00070931002809311029093120220E030E05E
:1021000040E752E40E943A5929E9C22E26E0D22E35
:102110007B018C0122E936E04EE856E06AE876E081
:1021200086E896E00E9487380E94694AF40110828E
:1021300011821282138225EC36E041EC56E06DEB01
:1021400076E089EB96E00E945B422D813E8125512D
:10215000384F3A832983C9015DDF9058A30192016A
:102160000E94085CF501608371838283938320E081
:1021700030E040E752E460910F02709110028091CC
:102180001102909112020E943A597B018C0122E9BE
:1021900036E04EE856E06AE876E086E896E00E948F
:1021A00087380E94694A89819A8134DF9B01AC019A
:1021B0000E945A58A30192010E94085CF5016083B5
:1021C00071838283938320E030E040E05FE3EB8122
:1021D000FC8160817181828193810E94085C60939F
:1021E0000F0270931002809311029093120220E06C
:1021F00030E040E752E40E943A597B018C0122E929
:1022000036E04EE856E06AE876E086E896E00E941E
:1022100087380E94694A8D819E818D5F974FFADED3
:102220000D811E810355194FF801208131814281B2
:1022300053810E945A58F40160837183828393838F
:102240008D819E81855E974FE5DE2D813E812F55E4
:10225000394F7901F80120813181428153810E94F7
:102260005A58F70160837183828393838D819E81A5
:10227000815F974FCFDE2D813E812C5E3D4F7901EE
:10228000F80120813181428153810E945A58F7011F
:102290006083718382839383F40180819181A28121
:1022A000B381F50180839183A283B38310920F02DF
:1022B0001092100210921102109212020E94FB431F
:1022C000F101E256F94F81E0808326960FB6F8942B
:1022D000DEBF0FBECDBFDF91CF911F910F91FF9059
:1022E000EF90DF90CF90BF90AF909F908F907F90B6
:1022F0006F905F904F903F902F900895FC01249134
:10230000222341F03091C00035FFFCCF2093C6005E
:102310000196F4CF22E030E084E394E07ACEFC0131
:102320002491222341F03091C00035FFFCCF20934F
:10233000C6000196F4CF2AE030E084E394E0BFCDFC
:10234000CF93DF931F921F92CDB7DEB780913F0DE1
:102350009091400D9E012F5F3F4F009719F4255437
:102360003D4002C0281B390B3A83298389819A8119
:102370000F900F90DF91CF910895269A2E9808958F
:1023800066E170E083ED96E00E94CA2E60913F0204
:102390007091400283ED96E00C94022FEEDF40E056
:1023A00052EC61E070E084E394E049DCE2EEF7E0B7
:1023B0008491882341F09091C00095FFFCCF8093D9
:1023C000C6003196F5CF8091C00085FFFCCF8AE032
:1023D0008093C60087E298E0FC012491222341F01B
:1023E0003091C00035FFFCCF2093C6003196F5CF69
:1023F00024B720FF14C0EAEDF7E03491332341F015
:102400004091C00045FFFCCF3093C6003196F5CF18
:102410003091C00035FFFCCF3AE03093C60021FF79
:1024200014C0EAECF7E03491332341F04091C0004E
:1024300045FFFCCF3093C6003196F5CF3091C000F8
:1024400035FFFCCF3AE03093C60022FF14C0E9EB21
:10245000F7E03491332341F04091C00045FFFCCFB9
:102460003093C6003196F5CF3091C00035FFFCCFD8
:102470003AE03093C60023FF14C0E9EAF7E0349154
:10248000332341F04091C00045FFFCCF3093C6009C
:102490003196F5CF3091C00035FFFCCF3AE0309354
:1024A000C60025FF14C0E9E9F7E02491222341F09A
:1024B0003091C00035FFFCCF2093C6003196F5CF98
:1024C0002091C00025FFFCCF2AE02093C60014BE57
:1024D000E2E9F7E02491222341F03091C00035FF7A
:1024E000FCCF2093C6003196F5CFEAE8F7E02491BF
:1024F000222341F03091C00035FFFCCF2093C6006D
:102500003196F5CF2091C00025FFFCCF2AE0209323
:10251000C600FC012491E7E2F8E0222349F0309163
:10252000C00035FFFCCF2093C60031962491F5CF33
:10253000EAE7F7E02491222341F03091C00035FF13
:10254000FCCF2093C6003196F5CFE5E6F7E0249165
:10255000222341F03091C00035FFFCCF2093C6000C
:102560003196F5CFE9E5F7E02491222341F030914F
:10257000C00035FFFCCF2093C6003196F5CFE2E4D2
:10258000F7E02491222341F03091C00035FFFCCFC9
:102590002093C6003196F5CF2091C00025FFFCCFD7
:1025A0002AE02093C600E7E3F7E02491222341F0DC
:1025B0003091C00035FFFCCF2093C6003196F5CF97
:1025C000EBE2F7E02491222341F03091C00035FF87
:1025D000FCCF2093C6003196F5CF2091C00025FF97
:1025E000FCCF2AE02093C600FC018491E7E2F8E0EA
:1025F000882349F09091C00095FFFCCF8093C600DE
:1026000031968491F5CFECE1F7E08491882341F095
:102610009091C00095FFFCCF8093C6003196F5CF16
:102620008FDE4AE050E0BC0184E394E01CDCE5E08E
:10263000F7E08491882341F09091C00095FFFCCF92
:102640008093C6003196F5CF4AE050E060ED74E02B
:1026500084E394E008DC8091C00085FFFCCF8AE031
:102660008093C6001092E1041092E2041092E304F9
:102670001092E4045DD90E94DF090E94244F0E9459
:10268000F6360E94834B7CDEFFEF23ED80E3F150B2
:1026900020408040E1F700C0000061E08AE00E9435
:1026A0006F5760E070E08AE00C9459568091D50431
:1026B0009091D60460E070E001960C94775D809173
:1026C000D5049091D6044AE050E060E070E00196B5
:1026D0000C94DF5E682F772767FD70952091DF04EB
:1026E0003091E00440E6429FC001439F900D1124C9
:1026F0008B519B4F0E944A609093D6048093D504DF
:1027000021E0892B09F420E0822F08950E94A3552F
:102710006093D1047093D2048093D3049093D40433
:10272000EDE0F4E08491882341F09091C00095FFA2
:10273000FCCF8093C6003196F5CF8091C00085FF15
:10274000FCCF8AE08093C600089584E394E0C9DA60
:10275000E0E1F4E08491882341F09091C00095FF7E
:10276000FCCF8093C6003196F5CF40916A06509118
:102770006B0660916C0670916D064F5F5F4F6F4FF7
:102780007F4F2AE030E084E394E04ADB8091C00090
:1027900085FFFCCF8AE08093C600B8CF8F929F92CE
:1027A000AF92BF92CF92DF92EF92FF920F931F935F
:1027B000CF93DF933EEDE32E33E0F32E09EB16E0EB
:1027C000C6E8D6E04CECC42E46E0D42EF701819149
:1027D0007F0180DF882311F169DF4B015C01F60185
:1027E0008081811103C06091650601C061E070E0E5
:1027F00080E090E00E94D559F8012081318142812A
:1028000053810E94085C9B01AC01C501B4010E9488
:102810005A58688379838A839B8309C0F801808131
:102820009181A281B38188839983AA83BB830C5F42
:102830001F4F2496FFEFCF1ADF0A82EEE81683E0DF
:10284000F80621F686E446DF8823D1F02FDF6B01FE
:102850007C01609376067093770680937806909358
:10286000790620E030E0A9010E94365B181644F496
:10287000C0920F02D0921002E0921102F092120266
:10288000DF91CF911F910F91FF90EF90DF90CF904C
:10289000BF90AF909F908F90089580DF89E41ADFFA
:1028A000882351F003DF60937A0670937B06809350
:1028B0007C0690937D0608C010927A0610927B06E3
:1028C00010927C0610927D068AE404DF882351F082
:1028D000EDDE60937E0670937F0680938006909372
:1028E0008106089510927E0610927F06109280064F
:1028F000109281060895CF92DF92EF92FF92CF93CC
:10290000DF93EC01C090A106D090A206E090A30650
:10291000F090A406A7019601688179818A819B8144
:102920000E94335987FF04C0C882D982EA82FB82A1
:10293000C090A506D090A606E090A706F090A80645
:10294000A70196016C817D818E819F810E94335900
:1029500087FF04C0CC82DD82EE82FF8220E030E07F
:10296000A9016091A9067091AA068091AB06909189
:10297000AC060E945A586B017C019B01AC01688532
:1029800079858A859B850E94335987FF04C0C88654
:10299000D986EA86FB86C0901402D0901502E0909A
:1029A0001602F0901702A7019601688179818A8149
:1029B0009B810E94365B181624F4C882D982EA8271
:1029C000FB82C0901802D0901902E0901A02F09099
:1029D0001B02A70196016C817D818E819F810E94DF
:1029E000365B181624F4CC82DD82EE82FF82C09022
:1029F0001C02D0901D02E0901E02F0901F02A70161
:102A00009601688579858A859B850E94365B1816B4
:102A100024F4C886D986EA86FB86DF91CF91FF90A1
:102A2000EF90DF90CF900895CF92DF92EF92FF92D8
:102A30000F931F9386E896E05EDF0E94A355609394
:102A4000D1047093D2048093D3049093D404209142
:102A500086063091870640918806509189066091DC
:102A6000B9067091BA068091BB069091BC060E948F
:102A70003359811179C020918A0630918B0640919B
:102A80008C0650918D066091BD067091BE068091B6
:102A9000BF069091C0060E943359811165C020E0A5
:102AA00030E040E752E460910F0270911002809193
:102AB0001102909112020E943A5959E9C52E56E02E
:102AC000D52E7B018C0122E936E04EE856E06AE81B
:102AD00076E086E896E00E9487388091860690919D
:102AE0008706A0918806B09189068093B9069093D5
:102AF000BA06A093BB06B093BC0680918A0690915B
:102B00008B06A0918C06B0918D068093BD069093A4
:102B1000BE06A093BF06B093C00680918E0690912A
:102B20008F06A0919006B09191068093C106909374
:102B3000C206A093C306B093C406809192069091FA
:102B40009306A0919406B09195068093C506909344
:102B5000C606A093C706B093C8061F910F91FF90B9
:102B6000EF90DF90CF90089560912C0270912D022C
:102B7000882777FD8095982F0E94D55920910F02C4
:102B80003091100240911102509112020E94085C93
:102B900020E030E040E752E40E943A5920E030E083
:102BA00048EC52E488CFAF92BF92CF92DF92EF927F
:102BB000FF920F931F93CF93DF93D82F20917E0620
:102BC00030917F06409180065091810660917A068F
:102BD00070917B0680917C0690917D060E94435BFC
:102BE000C62F172F082FF92E60912C0270912D02FD
:102BF000882777FD8095982F0E94D55920910F0244
:102C00003091100240911102509112020E94085C12
:102C100020E030E040E752E40E943A5920E030E002
:102C200048EC52E40E943A59209199062F93DF9381
:102C3000FF920F931F93CF935B016C0162E0E62E2E
:102C400001E020E04AE756E066E876E089EB96E0AE
:102C50000E94CE2F8091860690918706A0918806CB
:102C6000B09189068093B9069093BA06A093BB06EB
:102C7000B093BC0680918A0690918B06A0918C0639
:102C8000B0918D068093BD069093BE06A093BF06BB
:102C9000B093C00680918E0690918F06A091900609
:102CA000B09191068093C1069093C206A093C3068B
:102CB000B093C4068091920690919306A0919406D9
:102CC000B09195068093C5069093C606A093C7065B
:102CD000B093C8060E94A3556093D1047093D204A8
:102CE0008093D3049093D4040F900F900F900F9083
:102CF0000F900F90DF91CF911F910F91FF90EF9068
:102D0000DF90CF90BF90AF900895F8940E946A4FE3
:102D1000429A10929E06419A10929F069FB7F8948D
:102D200080910B01806880930B019FBF1092A006D9
:102D30008D9A60E08CE00E946F57EDE2F8E084919C
:102D4000882341F09091C00095FFFCCF8093C6008E
:102D50003196F5CFEEEEF3E08491882341F0909127
:102D6000C00095FFFCCF8093C6003196F5CF8091CF
:102D7000C00085FFFCCF8AE08093C6007894C6E04F
:102D8000D0E0219739F068EC70E080E090E00E949C
:102D9000D255F7CFF894FFCF4F925F926F927F9208
:102DA0008F929F92BF92CF92DF92EF92FF920F93FA
:102DB0001F93CF93DF9370E6D72E04E010E0E4EE8C
:102DC000EE2EE5E0FE2EFAE0CF2EBB24B3948091E8
:102DD000B5049091B6042091B7043091B804821BD9
:102DE000930B8F779927892B09F412C28091DB040A
:102DF0009091DC0404970CF00BC284E394E00E94F1
:102E0000550E8093DA042091D8043091D9048A3089
:102E100061F08D3051F08A3321F49091D7049923D9
:102E200021F02F3531050CF419C12115310519F4A4
:102E30001092D704EDC18091DD049091DE04D89EFC
:102E40004001D99E900C1124F401E20FF31FEB51C5
:102E5000FB4F10822091D7042111FBC0FC01EF51E0
:102E6000FB4F1082E401CB51DB4F6EE470E0CE01EA
:102E70000E944A600097F1F19093D6048093D504A4
:102E80008C1B9D0B880D991D4AE050E060E070E0BE
:102E90008A519B4F0E94DF5E60936E0670936F06AF
:102EA000809370069093710640906A0650906B066E
:102EB00060906C0670906D062FEF421A520A620AFB
:102EC000720AC091DD04D091DE0464157505860593
:102ED000970509F4E1C0DC9EC001DD9E900D112430
:102EE00060E077E08B519B4F0E943060892B09F0A6
:102EF000D3C061C16AE270E0CE010E944A60892BB2
:102F000009F444C0EDE2F8E08491882341F0909107
:102F1000C00095FFFCCF8093C6003196F5CFEAE55F
:102F2000F6E08491882341F09091C00095FFFCCF9A
:102F30008093C6003196F5CF40916A0650916B069A
:102F400060916C0670916D062AE030E084E394E0B5
:102F50000E94100F8091C00085FFFCCF8AE0809313
:102F6000C6001092D9041092D80452C180916E0606
:102F700090916F06A0917006B091710680936A06D9
:102F800090936B06A0936C06B0936D068091DD0460
:102F90009091DE04D89EE001D99ED00D1124CE017F
:102FA0008B519B4F4C0167E470E00E944A60009790
:102FB00061F19093D6048093D504881999098C0FF8
:102FC0009D1F60E070E08A519B4F0E94775D0E94D8
:102FD000A25964307105C8F48091C3048823A9F014
:102FE000F7018491E4EEF5E0882349F09091C00068
:102FF00095FFFCCF8093C60031968491F5CF8091E8
:10300000C00085FFFCCFC092C600C091DD04D09106
:10301000DE04DC9EC001DD9E900D11246FE972E09C
:103020008B519B4F0E945560892B09F46EDECE01B7
:103030000196B8010E94E95C9093DE048093DD0460
:103040008091DB049091DC0401969093DC048093E2
:10305000DB041092D9041092D804B9CE8B3311F44A
:10306000B092D7049091D7049111B1CE4091DD0474
:103070005091DE04B9016F5F7F4F7093D904609364
:10308000D804D49EF001D59EF00D1124E20FF31F59
:10309000EB51FB4F80839BCEDC9E4001DD9E900C6C
:1030A0001124C4018B519B4F3C016AE270E00E94E5
:1030B0004A60009789F5EDE2F8E08491882341F0B9
:1030C0009091C00095FFFCCF8093C6003196F5CF5C
:1030D000E4E8F6E08491882341F09091C00095FFE8
:1030E000FCCF8093C6003196F5CF40916A0650918F
:1030F0006B0660916C0670916D062AE030E084E307
:1031000094E00E94100F8091C00085FFFCCF8AE000
:103110008093C6001ADB25CF20E0C0E0F401E20F67
:10312000F11DEB51FB4F30813A3219F02F5FC3276D
:10313000F5CF9093D6048093D50486199709880D0E
:10314000991D60E070E08A519B4F0E94775D0E945C
:10315000A259D0E0C617D70709F408CFEDE2F8E08E
:103160008491882341F09091C00095FFFCCF80931B
:10317000C6003196F5CFEEEAF6E08491882341F05F
:103180009091C00095FFFCCF8093C6003196F5CF9B
:1031900040916A0650916B0660916C0670916D06C5
:1031A0002AE030E084E394E00E94100F8091C00098
:1031B00085FFFCCFACCFEDE2F8E08491882341F0AD
:1031C0009091C00095FFFCCF8093C6003196F5CF5B
:1031D000EDECF6E08491882341F09091C00095FFDA
:1031E000FCCF8093C6003196F5CF40916A0650918E
:1031F0006B0660916C0670916D062AE030E084E306
:1032000094E00E94100F8091C00085FFFCCF7FCF1B
:10321000DF91CF911F910F91FF90EF90DF90CF90B2
:10322000BF909F908F907F906F905F904F90089588
:10323000CF92DF92EF92FF920F931F93CF93C82FFD
:103240008091DB049091DC0403970CF4A5DD0E94CF
:10325000A3550091CD041091CE042091CF0430915C
:10326000D004C090D104D090D204E090D304F09068
:10327000D4046C197D098E099F09061717072807C2
:10328000390728F4012B022B032B09F03EDD409176
:103290000B0250910C0260910D0270910E02452BB1
:1032A000462B472B19F10E94A3550091D104109190
:1032B000D2042091D3043091D404601B710B820B93
:1032C000930B00910B0210910C0220910D02309192
:1032D0000E02061717072807390740F490914B078D
:1032E00080914A07981302C0CC2349F0CF911F91D7
:1032F0000F91FF90EF90DF90CF900C943F38429A5F
:1033000010929E06419A10929F069FB7F894809162
:103310000B01806880930B019FBF1092A0068D9ACD
:10332000E5CF0E946A4F8091C304811134C081E0CF
:103330008093C30480916A0690916B06A0916C06FD
:10334000B0916D068093660690936706A093680619
:10335000B0936906EDE2F8E08491882341F0909102
:10336000C00095FFFCCF8093C6003196F5CFE8E70B
:10337000F3E08491882341F09091C00095FFFCCF49
:103380008093C6003196F5CF8091C00085FFFCCFB9
:103390008AE08093C60008958091C3040895CF9376
:1033A000DF93EC01809199068093C40484E592D95F
:1033B000811102C080E074C079D90E94A75960933E
:1033C000C4046623B9F3E7E2F8E08491882341F06E
:1033D0009091C00095FFFCCF8093C6003196F5CF49
:1033E000CD36D105B9F054F4C836D105B1F0C9369F
:1033F000D10509F045C0E9EEF2E021C0CA3DD10592
:1034000031F0CD3DD105E1F5E4EAF2E036C0EBEB79
:10341000F2E029C0E2EDF2E01CC0E0E0F3E08191CF
:10342000882371F19091C00095FFFCCF8093C60076
:10343000F6CF9091C00095FFFCCF8093C60081919C
:103440008111F7CF1DC09091C00095FFFCCF8093F4
:10345000C60081918111F7CF13C09091C00095FFF4
:10346000FCCF8093C60081918111F7CF09C0909164
:10347000C00095FFFCCF8093C60081918111F7CFEA
:1034800040E050E06091C40484E394E00E946A0F3D
:103490008091C00085FFFCCF8AE08093C60081E068
:1034A000DF91CF910895CF92DF92EF92FF9220911A
:1034B000C9062223F1F020E030E040E05FE30E9403
:1034C000085C6B017C0120E030E0A9010E943359C7
:1034D000882379F0A7019601C701B6010E94085C14
:1034E0002BED3FE049E450E40E94085C9B01AC01F5
:1034F00004C020E030E040E85FE360E070E080E896
:103500009FE30E943A59FF90EF90DF90CF9008958B
:1035100060912402709125028091260290912702E9
:10352000C2DF609320027093210280932202909365
:10353000230208953F924F925F926F927F928F92F3
:103540009F92AF92BF92CF92DF92EF92FF920F9332
:103550001F93CF93DF93CDB7DEB7A0970FB6F89444
:10356000DEBF0FBECDBF87E4B5D8882309F493C270
:103570009DD80E94A2596430710509F484C09CF45E
:103580006130710509F44CC024F4672B09F10C94E7
:10359000132B6230710509F462C06330710509F4C0
:1035A00068C00C94132B6A35710509F4F9C134F421
:1035B0006C31710509F4B2C00C94132B6B35710595
:1035C00009F4FFC16C35710509F40DC20C94132B7D
:1035D00080913E02813069F46AE570E083ED96E007
:1035E0000E94022F60E070E08AE00E94595610921B
:1035F0003E028091C304811102C0D0D815DA0E9426
:10360000694AE0EEF5E08491882311F40C94132BC1
:103610009091C00095FFFCCF8093C6003196F3CF08
:103620008091C30481110C94132BB8D8FDD90E944A
:10363000694A80913E02811103C081E080933E027D
:10364000ECEDF5E08491882311F40C94132B909108
:10365000C00095FFFCCF8093C6003196F3CF8091D8
:10366000C30481110C94132B18D981E09CDA0C94BB
:10367000132B8091C30481110C94132B0ED980E07D
:1036800092DA0C94132B80E525D8882331F00ED8DC
:103690000E94A7594B015C0103C0812C912C54015D
:1036A00083E518D8882359F001D820E030E04AE7B4
:1036B00054E40E94085C0E94A7594B015C010E94DF
:1036C000694A0E94A3556B017C01C80CD91CEA1CF5
:1036D000FB1C0E94A3556093D1047093D204809385
:1036E000D3049093D4040E94A3556C157D058E05D8
:1036F0009F0528F40E94564D80E09ADDF4CFE8ED56
:10370000F5E08491882311F40C94132B9091C00060
:1037100095FFFCCF8093C6003196F3CF80910F02C6
:1037200090911002A0911102B09112028093720642
:1037300090937306A0937406B093750680912C0243
:1037400090912D029093CB068093CA0684E690E078
:1037500090932D0280932C020E94A3556093D10474
:103760007093D2048093D3049093D40481E00E9498
:1037700002448091B9069091BA06A091BB06B0911F
:10378000BC068093860690938706A0938806B09324
:1037900089068091BD069091BE06A091BF06B091AA
:1037A000C00680938A0690938B06A0938C06B093F4
:1037B0008D068091C1069091C206A091C306B0917A
:1037C000C40680938E0690938F06A0939006B093C4
:1037D00091068091C5069091C606A091C706B0914A
:1037E000C8068093920690939306A0939406B09394
:1037F000950610920F021092100210921102109270
:10380000120288E50E946A13882311F090E00AC032
:1038100089E50E946A138111F9CF8AE50E946A1333
:1038200091E098279093130291110C94162B88E540
:103830000E946A1381110C94162B8091130281113E
:103840000C941C2B89E50E946A1381110C941C2B8B
:1038500088E50E946A138823D1F00E945F13672BCA
:10386000682B692BA1F00E9456132091AD06309170
:10387000AE064091AF065091B0060E945A58609330
:10388000B9067093BA068093BB069093BC0689E58F
:103890000E946A138823D1F00E945F13672B682B64
:1038A000692BA1F00E9456132091B1063091B20607
:1038B0004091B3065091B4060E945A586093BD06D9
:1038C0007093BE068093BF069093C006809113024A
:1038D000811103C08AE50E946A138AE50E946A1377
:1038E0008823D1F00E945F13672B682B692BA1F00E
:1038F0000E9456132091B5063091B6064091B70646
:103900005091B8060E945A586093C1067093C2063F
:103910008093C3069093C40625EC36E041EC56E054
:103920006DEB76E089EB96E00E945B4280E00E94BE
:1039300002448091720690917306A0917406B09132
:10394000750680930F0290931002A0931102B0931A
:1039500012028091CA069091CB0690932D0280931B
:103960002C020E94A3556093D1047093D2048093DB
:10397000D3049093D4040E94FB431092D0060E947B
:10398000694AE4EDF5E08491882311F40C94132B3B
:103990009091C00095FFFCCF8093C6003196F3CF85
:1039A00010926506E0EDF5E08491882311F40C9403
:1039B000132B9091C00095FFFCCF8093C6003196E9
:1039C000F3CF81E080936506ECECF5E084918823E9
:1039D00011F40C94132B9091C00095FFFCCF8093B1
:1039E000C6003196F3CF85E40E946A13811102C0AC
:1039F0000E94694A7EEDC72E73E0D72EEDEAEE2EC7
:103A0000E6E0FE2E09EB16E0B12CF60181916F0184
:103A10000E946A13882339F1F3E0BF120CC00E94A0
:103A20005613F801608371838283938385EC96E05B
:103A30000E94FF4218C00E945613F7012081318175
:103A4000428153810E945A58F801608371838283B6
:103A5000938325EC36E041EC56E06DEB76E089EBA4
:103A600096E00E945B42B394F4E0EF0EF11C0C5F11
:103A70001F4F24E0B212C9CFE8ECF5E0849188230F
:103A800011F40C94132B9091C00095FFFCCF809300
:103A9000C6003196F3CF8DE40E946A13882311F497
:103AA0000C94422A0E9456130E94A2596C38710548
:103AB00009F43EC20CF08BC06C35710509F4B4C535
:103AC0000CF046C06035710509F43DC52CF5623136
:103AD000710509F456C5B4F46430710509F41BC1CD
:103AE0006131710511F00C94132B429841989FB7E6
:103AF000F89480910B018F7780930B019FBF8D9875
:103B00000C94132B6F31710509F427C16A327105CA
:103B100009F4A8C10C94132B6335710509F42CC565
:103B20006CF46135710509F412C56235710511F047
:103B30000C94132B1092CF060C94132B6435710543
:103B400009F41FC56535710509F453C50C94132B91
:103B50006037710509F4EAC1CCF46A36710509F4DD
:103B6000BCC454F46836710509F4C3C169367105E3
:103B700009F4EFC10C94132B6B36710509F4DDC405
:103B80006D36710509F4F1C20C94132B653771057C
:103B900009F4D6C564F46237710509F4E0C56337EA
:103BA000710511F00C94132BEBEAF4E0C5C56837EE
:103BB000710509F4B3C66937710509F4B3C66737EF
:103BC000710511F00C94132BE6E2F3E0B5C66E32EA
:103BD00031E0730711F40C9437280CF043C06D3CAE
:103BE000710509F4CCC7CCF4693C710509F46BC7C5
:103BF00054F46E3B710509F46FC3683C710509F418
:103C0000F0C60C94132B6B3C710509F47CC76C3C1B
:103C1000710509F494C70C94132B6D3D710511F4D3
:103C20000C94542664F46E3C710511F40C941D261A
:103C30006C3D710511F40C9439260C94132B6831EA
:103C400091E0790711F40C94D3266D32E1E07E0700
:103C500011F40C947127623E710511F00C94132B32
:103C60000C947A26663FF1E07F0711F40C94BF288C
:103C70002CF56F3531E0730711F40C94D1296CF4F5
:103C80006F3291E0790711F40C9445286E3571403C
:103C900011F40C949A290C94132B6039F1E07F07EE
:103CA00011F40C947D28653F714011F00C94132B96
:103CB0000E94980C0E94DF090C94132B613233E0B0
:103CC000730711F40C94A2286CF4673F91E0790714
:103CD00011F40C94C2286032734011F40C948028C3
:103CE0000C94132B6335F3E07F0711F40C94C52873
:103CF000673E23E0720711F40C942D2A6232734060
:103D000011F00C94132B61E08CE00E94A857EFE5B2
:103D1000F4E00C94BB2880E50E946A13882371F0BC
:103D20000E9456130E94A2597093D2066093D10646
:103D30008AE00E94595681E08093D006E4ECF5E0D9
:103D40008491882311F40C94132B9091C00095FF5B
:103D5000FCCF8093C6003196F3CF0E94A3556093A9
:103D6000C5047093C6048093C7049093C80400915F
:103D7000C9041091CA042091CB043091CC04601B7B
:103D8000710B820B930B28EE33E040E050E00E9471
:103D9000FC5CCA01B9012CE330E040E050E00E9435
:103DA000FC5C7F936F933F932F9385EB95E09F93FC
:103DB0008F93CE0101969F938F930E945E60E7E2FE
:103DC000F8E084910FB6F894DEBF0FBECDBFE7E2F6
:103DD000F8E0882349F09091C00095FFFCCF8093D4
:103DE000C60031968491F5CFFE01319681918823EA
:103DF00039F09091C00095FFFCCF8093C600F6CFBC
:103E00008091C00085FFFCCF8AE08093C60080913E
:103E10001F0C882311F40C94132B10921F0C00918B
:103E2000990610E0000F111F0C5C124FF801608121
:103E30007181882777FD8095982F0E94D559209110
:103E4000490230914A0240914B0250914C020E942B
:103E5000365B181614F00C94132BF80111821082A3
:103E60000C94132B83E50E946A13882311F40C949D
:103E7000132B0E9456130E94A259F62EE72E862F6E
:103E80009E2D8C0180E50E946A13882331F00F3F3C
:103E9000110509F010F40C94222B0DE010E0E6EA75
:103EA000F3E0819191918017910711F40C94132BF9
:103EB00023E0EE3DF207A9F70430110539F48F2D08
:103EC0009E2D909398068093970604C017FF02C01A
:103ED0000C94132B61E0802F0E946F576F2D802F61
:103EE0000E94A8576F2D7E2D802F0E9459560C944A
:103EF000132B88E690E053DA81110C94132B83E5A1
:103F00000E946A13882371F00091C4040E94561322
:103F100010E0000F111F0C5C124F0E94A259F80113
:103F2000718360830E94694F0C94132B0E94851645
:103F300083E50E946A13882311F40C94132B0E94CA
:103F400056130E94A2597093330D6093320D0C9456
:103F5000132B89E690E023DA81110C94132BEFEAFE
:103F6000F5E08491882341F09091C00095FFFCCF4B
:103F70008093C6003196F5CFE091C40424E0E29F1F
:103F8000F0011124E45DF24F40815181628173811F
:103F900021E030E084E394E00E940910ECEAF5E0CF
:103FA0008491882341F09091C00095FFFCCF8093CD
:103FB000C6003196F5CFE091C404F0E0EE0FFF1F8C
:103FC000EC5CF24F60817181882777FD8095982F96
:103FD0000E94D559AB01BC0121E030E084E394E0BC
:103FE0000E940910E8EAF5E08491882341F090915D
:103FF000C00095FFFCCF8093C6003196F5CF40916D
:10400000260D5091270D6091280D7091290D21E00A
:1040100030E084E394E00E940910E5EAF5E0849141
:10402000882341F09091C00095FFFCCF8093C6009B
:104030003196F5CF6091320D7091330D882777FD61
:104040008095982F0E94D559AB01BC0121E030E04A
:1040500084E394E00E940910E2EAF5E08491882369
:1040600041F09091C00095FFFCCF8093C60031963F
:10407000F5CF4AE050E060E070E084E394E00E9415
:10408000330FE0EAF5E08491882341F09091C0007D
:1040900095FFFCCF8093C6003196F5CF40912C0D53
:1040A00050912D0D60912E0D70912F0D21E030E07B
:1040B00084E394E00E940910EDE9F5E084918823FF
:1040C00041F09091C00095FFFCCF8093C6003196DF
:1040D000F5CF6091340D7091350D882777FD80956F
:1040E000982F0E94D559AB01BC0121E030E084E358
:1040F00094E00E940910E9E9F5E08491882341F0F9
:104100009091C00095FFFCCF8093C6003196F5CF0B
:104110008091C40490E00E944B4D4AE050E0BC0105
:1041200084E394E00E94330FE4E9F5E0849188236E
:1041300041F09091C00095FFFCCF8093C60031966E
:10414000F5CF8FEF9FEF0E944B4D4AE050E0BC014E
:1041500084E394E00E94330F8091C00085FFFCCF80
:104160008AE08093C6000C94792C8DE690E017D9F4
:1041700081110C94132B10921F0C83E50E946A137B
:10418000882391F00091C4040E94561310E0000FA0
:10419000111F0C5C124F0E94A259F80171836083B9
:1041A00081E080930A0215C082E50E946A13882389
:1041B00081F00091C4040E94561310E0000F111FFB
:1041C0000C5C124F0E94A259F80171836083109217
:1041D0000A0283E50E946A13882351F00E94561355
:1041E0006093490270934A0280934B0290934C0271
:1041F00082E40E946A13882351F00E945613609350
:104200004D0270934E0280934F029093500286E4C9
:104210000E946A13882369F00E9456136093450236
:1042200070934602809347029093480281E0809306
:104230001F0C0E94694F0E94A3554B015C01009125
:10424000C40410E0F801EE0FFF1FEC5CF24F608138
:104250007181882777FD8095982F0E94D559F801A4
:10426000EE0FFF1FEE0FFF1FE45DF24F11E0208104
:104270003181428153810E94365B18160CF010E0A8
:104280001093B90410929606CC24CA94DC2C7601C3
:10429000F8EE4F2EF3E05F2E612C712CAAE03A2E3F
:1042A0008091960681110C943B2CFFEFCF16DF0610
:1042B000EF06FF0611F40C94292BF7FE02C00C94B4
:1042C0003B2C0E94A3556C197D096031774210F494
:1042D0000C94292B0C943B2C83E50E946A138823B1
:1042E00061F00E9456130E94A2597093330D60939F
:1042F000320D81E080930A020FC082E50E946A13AA
:10430000882351F00E9456130E94A2597093330DD6
:104310006093320D10920A020E94A3554B015C017A
:10432000109296066091320D7091330D882777FDBB
:104330008095982F0E94D55911E02091260D30913B
:10434000270D4091280D5091290D0E94365B1816BB
:104350000CF010E01093B90406E815E092E8E92E9D
:1043600095E0F92E2EE7C22E25E0D22E3AE0732EEC
:104370008091B9046091320D7091330D882309F456
:1043800089C080919606811185C0882777FD809528
:10439000982F0E94D5592091260D3091270D4091DC
:1043A000280D5091290D0E94365B18160CF089C01B
:1043B0000E94A355681979098A099B09693E7340CF
:1043C0008105910508F460C0E091990684E0E89FBA
:1043D000F0011124E45DF24F4081518162817381CB
:1043E000F8018491E6E8F5E0882349F09091C00057
:1043F00095FFFCCF8093C60031968491F5CF22E0E3
:1044000030E084E394E00E940910F7018491E2E82F
:10441000F5E0882349F09091C00095FFFCCF809390
:10442000C60031968491F5CF6091990670E04AE01C
:1044300050E084E394E00E94330FF6018491EEE7AC
:10444000F5E0882349F09091C00095FFFCCF809360
:10445000C60031968491F5CF4091260D5091270DDD
:104460006091280D7091290D21E030E084E394E003
:104470000E9409108091C00085FFFCCF7092C60099
:104480000E94A3554B015C010E94564D80E00E94A2
:1044900018196ECF882777FD8095982F0E94D559DF
:1044A0002091260D3091270D4091280D5091290D16
:1044B0000E94335987FF05C080910A02882309F4BE
:1044C00077CF0E94A3556093D1047093D204809358
:1044D000D3049093D4040C94132B83E50E946A13A5
:1044E000882319F10E94561320E030E0A9010E94B0
:1044F000335987FD0FC00E94561320E030E04FE78C
:1045000053E40E94365B181644F00E9456130E9432
:10451000A25905C060E070E002C06FEF70E07093D8
:104520009806609397060C94132B8FEF90E090936E
:104530009806809397060C94132B1092980610926D
:1045400097060C94132B269A2E980C94132B0E94EA
:104550006A4F0E94694A8D9A0E94D04A109298062A
:104560001092970668EE73E080E090E00E94D255CA
:10457000269A2E9A0C94132B81E08093CF060C94EC
:10458000132B83E50E946A138823A1F00E9456131F
:1045900020E030E04AE754E40E94085C0E94A759FA
:1045A00060930B0270930C0280930D0290930E02A5
:1045B0000C94132B88E50E946A1381110C94502CE3
:1045C00089E50E946A1381110C94502C8AE50E949F
:1045D0006A1381110C94502C85E40E946A13811196
:1045E0000C94502C0E94694A8D9A0E94D04A0C94D7
:1045F000132B83E50E946A13882311F40C94132B68
:104600000E94561320E030E04AE754E40E94085C20
:104610000E94A7596093CD047093CE048093CF0479
:104620009093D0040C94132B2EED33E038A32F8FEE
:1046300000E81CE0B0E98B2EBCE09B2E84E4A82EA1
:104640008CE0B82E312CEF8DF8A18191F8A3EF8F7B
:104650000E946A13882309F45BC0F3E03F1251C043
:104660000E9456136B017C0120E030E040EA51E4E7
:104670000E94335987FF3FC0A7019601F80160816E
:104680007181828193810E943A592B013C019B01E7
:10469000AC016091580C7091590C80915A0C90911A
:1046A0005B0C0E94085C6093580C7093590C8093CB
:1046B0005A0C90935B0CA3019201F401608171810B
:1046C000828193810E94085CF401608371838283FC
:1046D0009383F50160817181828193810E94D35916
:1046E000A30192010E94085C0E94A759F501608312
:1046F000718382839383F801C082D182E282F38244
:1047000007C00E945613F8016083718382839383EC
:1047100033940C5F1F4FF4E08F0E911C24E0A20E27
:10472000B11C34E033128FCF7EC79091C00095FF4B
:10473000FCCF8093C600319684918111F6CF73C768
:104740008091D5049091D6046AE270E005960E94AB
:104750004A60009709F467C7FC01108264C7E8EA61
:10476000F4E08491882341F09091C00095FFFCCF44
:104770008093C6003196F5CF4091B9065091BA06A4
:104780006091BB067091BC0622E030E084E394E0C7
:104790000E940910E4EAF4E08491882341F09091AA
:1047A000C00095FFFCCF8093C6003196F5CF4091B5
:1047B000BD065091BE066091BF067091C00622E012
:1047C00030E084E394E00E940910E0EAF4E0849190
:1047D000882341F09091C00095FFFCCF8093C600E4
:1047E0003196F5CF4091C1065091C2066091C30643
:1047F0007091C40622E030E084E394E00E94091046
:10480000ECE9F4E08491882341F09091C00095FF99
:10481000FCCF8093C6003196F5CF4091C5065091EC
:10482000C6066091C7067091C80622E030E084E3B6
:1048300094E00E940910E1E9F4E08491882341F0BA
:104840009091C00095FFFCCF8093C6003196F5CFC4
:104850000E94C24A0E94D5592091800C3091810C4F
:104860004091820C5091830C0E943A59AB01BC01DB
:1048700022E030E084E394E00E940910EDE8F4E0E7
:104880008491882341F09091C00095FFFCCF8093E4
:10489000C6003196F5CF81E00E94C24A0E94D559E8
:1048A0002091840C3091850C4091860C5091870C9E
:1048B0000E943A59AB01BC0122E030E084E394E06D
:1048C0000E940910E9E8F4E08491882341F0909176
:1048D000C00095FFFCCF8093C6003196F5CF82E0F3
:1048E0000E94C24A0E94D5592091880C3091890CAF
:1048F00040918A0C50918B0C0E943A59AB01BC013B
:1049000022E030E084E394E00E9409108091C0002E
:1049100085FFFCCF8AE08093C60085C680E00E94B8
:10492000024481C681E00E9402447DC69091C0008D
:1049300095FFFCCF8093C60081918111F7CF8091C4
:10494000C00085FFFCCF8AE08093C600E1E8F4E078
:104950008491882341F09091C00095FFFCCF809313
:10496000C6003196F5CF7E9903C0E7E1F3E009C0B8
:10497000E1E2F3E006C09091C00095FFFCCF809388
:10498000C60081918111F7CF8091C00085FFFCCFD7
:104990008AE08093C600E9E7F4E08491882341F03F
:1049A0009091C00095FFFCCF8093C6003196F5CF63
:1049B0007F9903C0E7E1F3E009C0E1E2F3E006C05C
:1049C0009091C00095FFFCCF8093C600819181112A
:1049D000F7CF8091C00085FFFCCF8AE08093C600AE
:1049E00022C6809199068093C40484E50E946A13CC
:1049F000882311F10E9456130E94A7596093C404A2
:104A00006623D1F0E7E2F8E08491882341F09091A9
:104A1000C00095FFFCCF8093C6003196F5CFE1E44E
:104A2000F3E08191882309F4FEC59091C00095FFC1
:104A3000FCCF8093C600F5CF84E40E946A138823DC
:104A400009F4F1C50E94561320E030E0A9010E944C
:104A50003359811103C01092C90632C00091C404B9
:104A600010E00E945613F801EE0FFF1FEE0FFF1F1C
:104A7000EC5DFD4F6083718382839383E090240219
:104A8000F0902502009126021091270220E030E0EC
:104A9000A901B701C8010E943359811104C0E12C5A
:104AA000F12C00E410E4C701D80180932402909314
:104AB0002502A0932602B093270281E08093C906C5
:104AC0000E94881AB0C50EED13E0F0E7EF2EFCE06F
:104AD000FF2EF80181918F010E946A13882349F00B
:104AE0000E9456130E94A759F70160837183828345
:104AF0009383F4E0EF0EF11C23E0023E120749F726
:104B00000E94244390C50EED13E0E0E9EE2EECE0A8
:104B1000FE2EF80181918F010E946A13882339F0DB
:104B20000E945613F7016083718382839383F4E0BC
:104B3000EF0EF11C23E0023E120759F774C583E51E
:104B40000E946A13882351F00E9456136093680CE8
:104B50007093690C80936A0C90936B0C84E50E94AF
:104B60006A13882309F45FC50E9456136093640C8E
:104B70007093650C8093660C9093670C54C583E525
:104B80000E946A13882351F00E94561360936C0CA4
:104B900070936D0C80936E0C90936F0C84E50E9463
:104BA0006A13882351F00E9456136093540C70933B
:104BB000550C8093560C9093570C82E40E946A1314
:104BC000882361F00E9456130E94A7596093A00C9D
:104BD0007093A10C8093A20C9093A30C88E50E9483
:104BE0006A13882351F00E9456136093600C7093EF
:104BF000610C8093620C9093630C8AE50E946A13A7
:104C0000882351F00E94561360935C0C70935D0CE6
:104C100080935E0C90935F0C85E40E946A13882356
:104C200009F401C50E9456136093580C7093590CF7
:104C300080935A0C90935B0CF6C40EED13E07DEA62
:104C4000E72E76E0F72EF80181918F010E946A131A
:104C5000882339F00E945613F701608371838283A1
:104C60009383F4E0EF0EF11C23E0013E120759F7A5
:104C7000DAC483E50E946A13882341F00E94561328
:104C80000E94A25970932D0260932C02E4E7F4E095
:104C90008491882309F4C7C49091C00095FFFCCF8C
:104CA0008093C6003196F4CF83E50E946A1388236F
:104CB00009F4B9C40E9456130E94A2596B017C01E9
:104CC00084E50E946A13882381F08DED90E00E94B4
:104CD000CF198111A8C4E091C404F0E0EE0FFF1FCA
:104CE000E85DFD4FD182C0829EC4D0922B02C0925B
:104CF0002A0299C480E50E946A13882309F493C4A8
:104D00000E9456130E94A259D62E062F172F83E514
:104D10000E946A13882331F00E9456130E94A25900
:104D20007B0103C0EE24EA94FE2CC7010196039791
:104D300008F079C4E6EAF3E0819191918017910738
:104D400009F471C433E0EE3DF307B1F717FD6BC40E
:104D50000E94694ACD2C60E08D2D0E946F578FEF25
:104D6000E816F80631F0EA94EF2871F000E010E060
:104D70000DC08D2D0E94DD5731E020E0892B09F018
:104D800030E0032F122F02C001E010E08C2D0E94B2
:104D9000DD578017910709F446C40E94564D80E004
:104DA0000E941819F3CF80E50E946A13882331F01E
:104DB0000E9456130E94A2598B0102C00FEF1FEFF1
:104DC00083E50E946A13882309F446C00E945613A3
:104DD0000330110568F40E94A2599801220F331F75
:104DE000200F311FC90186549B4F0E94022F1BC404
:104DF000E7E2F8E08491882341F09091C00095FFAC
:104E0000FCCF8093C6003196F5CFEAE6F3E08191BE
:104E1000882339F09091C00095FFFCCF8093C600A5
:104E2000F6CF4AE050E0B80184E394E00E94330FEB
:104E3000E8E5F3E08191882339F09091C00095FF77
:104E4000FCCF8093C600F6CF8091C00085FFFCCFD9
:104E50008AE08093C600E7C317FDE5C3E6E6F3E00A
:104E60008191882339F09091C00095FFFCCF809309
:104E7000C600F6CFE9E6F3E08191882339F09091FE
:104E8000C00095FFFCCF8093C600F6CF4AE050E00B
:104E9000B80184E394E00E94330FE3EFF3E08191E3
:104EA000882339F09091C00095FFFCCF8093C60015
:104EB000F6CFC801880F991F800F911F86549B4F12
:104EC0000E94832F4AE050E0BC0184E394E00E94FA
:104ED000330F8091C00085FFFCCF8AE08093C6002D
:104EE000A2C380E50E946A13882351F00E945613E2
:104EF00060936602709367028093680290936902E0
:104F000089E40E946A13882361F00E9456130E946C
:104F1000455560936202709363028093640290939C
:104F2000650284E40E946A13882361F00E9456138C
:104F30000E944F5560935E0270935F0280936002FF
:104F40009093610283E40E946A13882351F00E94C7
:104F5000561360935A0270935B0280935C029093A5
:104F60005D020E94344DE6E6F3E08191882339F03A
:104F70009091C00095FFFCCF8093C600F6CFE1E78B
:104F8000F3E08191882339F09091C00095FFFCCF28
:104F90008093C600F6CF40916602509167026091FF
:104FA00068027091690222E030E084E394E00E949C
:104FB0000910E5E7F3E08191882339F09091C00072
:104FC00095FFFCCF8093C600F6CF6091620270918E
:104FD000630280916402909165020E944A55AB0180
:104FE000BC0122E030E084E394E00E940910E9E78C
:104FF000F3E08191882339F09091C00095FFFCCFB8
:105000008093C600F6CF60915E0270915F0280913E
:105010006002909161020E945455AB01BC0122E0F4
:1050200030E084E394E00E940910EDE7F3E0819121
:10503000882339F09091C00095FFFCCF8093C60083
:10504000F6CF40915A0250915B0260915C027091E0
:105050005D0222E030E084E394E00E940910809138
:10506000C00085FFFCCF8AE08093C600DCC283E5E8
:105070000E946A13882319F00E94561303C060E04F
:1050800070E0CB010E941B43CEC285E40E946A13EC
:10509000882341F00E9456130E94A2598B0177FD8C
:1050A0000AC002C000E010E0C12CD12CB6E1EB2E0A
:1050B000B3E4FB2E06C0C12CD12CACE8EA2EA2E44E
:1050C000FA2E83E50E946A13882321F00E9456136A
:1050D0006B017C0183E40E946A13882331F00E94F3
:1050E00056130E94A2599B0102C025E030E0A8019E
:1050F000C701B6010E94844F96C20E94694A93C2BA
:1051000080E50E946A13882341F00E9456130E9492
:10511000A2597093400260933F0260913F027091E8
:10512000400283ED96E06ED6E1E7F4E084918823B7
:1051300009F479C29091C00095FFFCCF8093C6001E
:105140003196F4CF60E08CE00E94A857E8E6F4E0E6
:105150008491882309F467C29091C00095FFFCCF29
:105160008093C6003196F4CF9091C00095FFFCCF9C
:105170008093C600319684918111F6CF54C20E946B
:10518000980C51C20E94DF094EC28AE50E946A1340
:10519000882309F497C00E9456136B017C0120E01C
:1051A00030E040E751EC0E94365B87FD3FC020E0D5
:1051B00030E040EA50ECC701B6010E94335918169E
:1051C000ACF1F7FAF094F7F8F094C0929A06D09206
:1051D0009B06E0929C06F0929D06E7E2F8E084913F
:1051E000882341F09091C00095FFFCCF8093C600CA
:1051F0003196F5CFE3E5F4E08491882341F0909176
:10520000C00095FFFCCF8093C6003196F5CF80910A
:10521000C00085FFFCCF8AE08093C6008091C0006B
:1052200085FFFCCF8AE08093C600FDC1E7E2F8E08D
:105230008491882341F09091C00095FFFCCF80932A
:10524000C6003196F5CFEAE4F4E08491882341F07A
:105250009091C00095FFFCCF8093C6003196F5CFAA
:10526000E2E4F4E08491882341F09091C00095FF3E
:10527000FCCF8093C6003196F5CF4AE050E061EF55
:105280007FEF84E394E00E94330FEAE3F4E084913B
:10529000882341F09091C00095FFFCCF8093C60019
:1052A0003196F5CF4AE050E06BEF7FEF84E394E076
:1052B0000E94330F8091C00085FFFCCF8AE080936D
:1052C000C600B1C1E7E2F8E08491882341F09091F3
:1052D000C00095FFFCCF8093C6003196F5CFEEE27B
:1052E000F4E08491882341F09091C00095FFFCCFB9
:1052F0008093C6003196F5CF8091C00085FFFCCF2A
:105300008AE08093C60040919A0650919B06609176
:105310009C0670919D06705822E030E084E394E092
:105320000E9409108091C00085FFFCCF8AE0809325
:10533000C60079C183E50E946A13811104C00EED95
:1053400013E0F12C10C010E00E9456130E94A759E0
:10535000812F0E94214B1F5F1530B1F7F0CFF394DE
:10536000F4E0FF1679F0F80181918F010E946A1331
:105370008823A9F30E9456130E94A7598F2D0E94DB
:10538000214BEDCF82E40E946A13882339F00E94FA
:1053900056130E94A75984E00E94214B0E94554C4D
:1053A00042C183E50E946A13882309F453C00E9416
:1053B00056130E94A2596130710541F062307105A7
:1053C00009F048C00EED13E0F12C25C00EED13E0FE
:1053D000F12CF80181918F010E946A13882341F01A
:1053E0000E9456130E94A2594FEF8F2D0E94E34A4C
:1053F000F394F4E0FF12EDCF82E40E946A13882355
:1054000049F10E9456130E94A2594FEF20C0F39415
:10541000F4E0FF1689F0F80181918F010E946A1370
:105420008823A9F30E9456130E94A259462F6FEFBA
:105430008F2D0E94E34AEBCF82E40E946A138823F7
:1054400049F00E9456130E94A259462F6FEF84E044
:105450000E94E34A0E94554CE6C01092C30480911A
:10546000660690916706A0916806B09169068093E0
:105470006A0690936B06A0936C06B0936D060E942B
:10548000A513D1C084E50E946A13882309F487C05C
:105490000E9456130E94A7596093C4046623A9F181
:1054A000E7E2F8E08491882341F09091C00095FFF5
:1054B000FCCF8093C6003196F5CFE1E8F3E081910F
:1054C000882339F09091C00095FFFCCF8093C600EF
:1054D000F6CF40E050E06091C40484E394E00E9481
:1054E0006A0FE3E8F3E08191882339F09091C000DE
:1054F00095FFFCCF8093C600F6CF8091C00085FF5A
:10550000FCCF8AE08093C6008EC086E40E946A13B6
:105510008823D9F00E9456136B017C0160937606B4
:1055200070937706809378069093790620E030E0B8
:10553000A9010E94365B181644F4C0920F02D09263
:105540001002E0921102F0921202E7E2F8E0849178
:10555000882341F09091C00095FFFCCF8093C60056
:105560003196F5CFE4E9F3E08191882339F0909109
:10557000C00095FFFCCF8093C600F6CF60919906DE
:1055800070E04AE050E084E394E00E94330F8091A1
:10559000C00085FFFCCF8AE08093C60044C0E7E2EC
:1055A000F8E08491882341F09091C00095FFFCCFF2
:1055B0008093C6003196F5CFEBE1F4E08491882327
:1055C00041F09091C00095FFFCCF8093C6003196CA
:1055D000F5CF8091DF049091E00420E6289FF00150
:1055E000299FF00D1124EB51FB4F8191882339F055
:1055F0009091C00095FFFCCF8093C600F6CFE9E103
:10560000F4E08491882341F09091C00095FFFCCF95
:105610008093C6003196F5CF8091C00085FFFCCF06
:105620008AE08093C6000E94861363C180E090E008
:105630000E9410100C941D1C81E090E00E9410103C
:105640000C94281C0E9456130E94A2598B010C94A2
:105650004F1F0E94A355681979098A099B09693E61
:1056600073408105910508F479C0E1E9F5E0849182
:10567000882341F09091C00095FFFCCF8093C60035
:105680003196F5CFE091C40424E0E29FF0011124AB
:10569000E45DF24F408151816281738121E030E00D
:1056A00084E394E00E940910EDE8F5E084918823FA
:1056B00041F09091C00095FFFCCF8093C6003196D9
:1056C000F5CF6091C40470E04AE050E084E394E0D8
:1056D0000E94330FE9E8F5E08491882341F090912E
:1056E000C00095FFFCCF8093C6003196F5CFF7FE42
:1056F00003C0EFE3F3E025C00E94A3558B019C019A
:10570000C701B601605F784D8F4F9F4F601B710BD3
:10571000820B930BA30192010E94FC5CBA01A901C8
:105720002AE030E084E394E00E945F0F8091C000A3
:1057300085FFFCCF0DC09091C00095FFFCCF8093FA
:10574000C60081918111F7CF8091C00085FFFCCF09
:105750003092C6000E94A3554B015C010E94564D39
:1057600080E00E941819FFEFCF16DF06EF06FF0654
:1057700009F046C08091B904E091C404F0E08F01C3
:10578000000F111F000F111F045D124FEE0FFF1FBE
:10579000EC5CF24F608171818823C9F0882777FD26
:1057A0008095982F0E94D55920E030E040E85FE3D3
:1057B0000E9459589B01AC01F8016081718182817E
:1057C00093810E94365B87FF50C00C94502188273C
:1057D00077FD8095982F0E94D55920E030E040E871
:1057E0005FE30E945A589B01AC01F801608171810E
:1057F000828193810E9433591816BCF50C94502174
:10580000F7FE02C00C945021E091C404F0E08F0137
:10581000000F111F000F111F045D124FEE0FFF1F2D
:10582000EC5CF24F60817181882777FD8095982F1D
:105830000E94D5599B01AC01F80160817181828180
:1058400093810E9459580E94A25997FF07C09095D2
:105850008095709561957F4F8F4F9F4F6430710594
:105860008105910514F40C9450210E94A3556B01FD
:105870007C010C9450210E94A3556093C90470933D
:10588000CA048093CB049093CC040E94A3556093E8
:10589000D1047093D2048093D3049093D404C3CEE4
:1058A0000E94694A88E50E946A13882319F0429A87
:1058B00010929E0689E50E946A13882319F0419A86
:1058C00010929F068AE50E946A13882351F09FB7C1
:1058D000F89480910B01806880930B019FBF109218
:1058E000A00685E40E946A13882309F49CCE8D9A51
:1058F0009ACEA0960FB6F894DEBF0FBECDBFDF9153
:10590000CF911F910F91FF90EF90DF90CF90BF90BC
:10591000AF909F908F907F906F905F904F903F904F
:1059200008958091DB049091DC04039714F40E94A5
:10593000CC168091DB049091DC04892BC1F00E948D
:105940009A1A8091DB049091DC0401979093DC0417
:105950008093DB048091DF049091E004019664E081
:1059600070E00E94E95C9093E0048093DF040E9461
:10597000564D80E00E9418190C946C4383ED96E01C
:1059800051D18AEB94E04ED18DEB94E04BD180EC79
:1059900094E048C1CF92DF92EF92FF920F931F9352
:1059A000CF93DF936C018B017A01EC01C952D94F7F
:1059B000888187FF04C0FB011182108223C02CE084
:1059C0002C9DC0012D9D900D11242881AC01420F0A
:1059D000511D27FD5A952091D60630E042175307F6
:1059E0008CF42881AC01420F511D27FD5A959A0174
:1059F000FA01EE0FFF1FE20FF31FE652F94F20816D
:105A000026FD19C088818F5F88838CE08C9D900172
:105A10008D9D300D11248881A901480F511D87FDEE
:105A20005A958091D60690E048175907B4F48881BA
:105A30008C303CF112C02881820F911D27FD9A9570
:105A4000FC01EE0FFF1FE80FF91FE652F94F8081AE
:105A500060E08F730E94A857D5CFF80180819181B3
:105A6000049680349C4918F480E49CE904C0F80151
:105A7000808191810496F701918380838FEF8883E1
:105A800041C0F801808191814881B901640F711D85
:105A900047FD7A95AB01FB01EE0FFF1FE40FF51FE9
:105AA000E652F94F41815281840F951FF70191838E
:105AB00080838881A901480F511D87FD5A95FA01FD
:105AC000EE0FFF1FE40FF51FE652F94F808186FFAE
:105AD00019C08881280F311D87FD3A95F901EE0F15
