:100000000C94B2090C94E3090C94E3090C94E309F1
:100010000C94E3090C94E3090C94E3090C94E309B0
:100020000C94E3090C94E3090C94E3090C94E309A0
:100030000C94E3090C94E3090C94E3090C94E30990
:100040000C94E3090C9461440C94E3090C94E309C7
:100050000C94E3090C94E3090C9457540C94AF5599
:100060000C94E3090C94EC0D0C94E3090C94E30953
:100070000C94E3090C94E3090C94E3090C94E30950
:100080000C94E12D0C94E3090C94E3090C94E3091E
:100090000C94E3090C94E3090C94E3090C94E30930
:1000A0000C94E3090C94E3090C940E2E0C94E309D0
:1000B0000C94E3090C94E3090C94E3090C943B2E93
:1000C0000C94E3090C94E3090C94E3090C94E30900
:1000D0000C94E3090C94E3090C94E3090C94E309F0
:1000E0000C94E309B154BE54DA54E75401550E554B
:1000F00028552A552C552E553655E456E956EE56B8
:10010000F85602577B570C5714571C572657305731
:100110003A57495753577B575D57675771579C5705
:100120009F578E5792579857D657A357A757AD57F3
:10013000B157B557BB57BF57C357D657C957CD57F8
:10014000D157084AD73B3BCE016E84BCBFFDC12FBF
:100150003D6C74319ABD56833DDA3D00C77F11BEB8
:10016000D9E4BB4C3E916BAAAABE000000803F05BB
:10017000A84CCDB2D44EB93836A9020C50B99186EC
:1001800088083CA6AAAA2ABE000000803F00486159
:100190007264636F6465642044656661756C742085
:1001A00053657474696E6773204C6F616465640095
:1001B0002044002049002020204D333031205000C1
:1001C0005049442073657474696E67733A00205A0D
:1001D0000020590020204D323036205800486F6DE5
:1001E00065206F666673657420286D6D293A00205E
:1001F0004500205A002058002042002054002020B2
:100200004D323035205300416476616E6365642061
:100210007661726961626C65733A20533D4D696E17
:1002200020666565647261746520286D6D2F732981
:100230002C20543D4D696E2074726176656C206689
:100240006565647261746520286D6D2F73292C209B
:10025000423D6D696E696D756D207365676D656E84
:10026000742074696D6520286D73292C20583D6DAC
:100270006178696D756D205859206A65726B202808
:100280006D6D2F73292C20205A3D6D6178696D7535
:100290006D205A206A65726B20286D6D2F73292C92
:1002A0002020453D6D6178696D756D2045206A653A
:1002B000726B20286D6D2F73290020540020204D73
:1002C000323034205300416363656C657261746938
:1002D0006F6E3A20533D616363656C65726174694A
:1002E0006F6E2C20543D726574726163742061637B
:1002F00063656C65726174696F6E00204500205AF9
:100300000020590020204D3230312058004D6178B6
:10031000696D756D20416363656C65726174696FA9
:100320006E20286D6D2F7332293A00204500205A27
:100330000020590020204D3230332058004D617884
:10034000696D756D206665656472617465732028DA
:100350006D6D2F73293A00204500205A0020590066
:1003600020204D3932205800537465707320706519
:100370007220756E69743A005072696E74657220ED
:1003800073746F707065642064756520746F206588
:1003900072726F72732E20466978207468652065CA
:1003A00072726F7220616E6420757365204D3939E9
:1003B0003920746F20726573746172742E20285412
:1003C000656D706572617475726520697320726500
:1003D0007365742E2053657420697420616674659A
:1003E000722072657374617274696E67290050724D
:1003F000696E7465722068616C7465642E206B6927
:100400006C6C28292063616C6C656421006F6B0043
:10041000526573656E643A20002200556E6B6E6FF4
:10042000776E20636F6D6D616E643A2022005A20F2
:100430004F6666736574203A20007A5F6D61783A82
:1004400020007A5F6D696E3A20005A204F6666730D
:100450006574005A204F6666736574206F6B006F79
:1004600031313131313131006F3030303030303076
:10047000006F6B006F4D470A00795F6D696E3A201F
:1004800000785F6D696E3A2000205A3A0020593A90
:100490000020436F756E7420583A200020453A00C2
:1004A000205A3A0020593A00583A004649524D57CE
:1004B0004152455F4E414D453A4D61726C696E2027
:1004C000312E302E322B20446576656C6F706D6551
:1004D0006E742046726F6D20417263686976652084
:1004E000534F555243455F434F44455F55524C3A35
:1004F00068747470733A2F2F6769746875622E631D
:100500006F6D2F4D61726C696E4669726D776172A5
:10051000652F4D61726C696E2050524F544F434F9E
:100520004C5F56455253494F4E3A312E30204D4183
:100530004348494E455F545950453A4D656E646590
:100540006C2045585452554445525F434F554E54C4
:100550003A3120555549443A30303030303030301F
:100560002D303030302D303030302D303030302D97
:100570003030303030303030303030300A002042CF
:100580003A0020453A00543A0020573A0020453AB4
:1005900000543A002042403A0020403A00202F0008
:1005A0003A00205400202F0020423A00202F006FF4
:1005B0006B20543A002569206D696E2C2025692036
:1005C000736563006F4D47006F4D47006F4D4700E7
:1005D0006F4D47006F4D47006F4D47006F4D47000F
:1005E0006F4D47006F4D47006F4D47006F4D4700FF
:1005F0005072696E7465722073746F7070656420D8
:1006000064756520746F206572726F72732E204658
:10061000697820746865206572726F7220616E64FB
:1006200020757365204D39393920746F20726573D8
:10063000746172742E202854656D706572617475D2
:1006400072652069732072657365742E205365741A
:1006500020697420616674657220726573746172BA
:1006600074696E6729004E6F204C696E65204E7567
:100670006D626572207769746820636865636B7367
:10068000756D2C204C617374204C696E653A2000A6
:100690004E6F20436865636B73756D20776974686E
:1006A000206C696E65206E756D6265722C204C61E0
:1006B0007374204C696E653A2000636865636B73E0
:1006C000756D206D69736D617463682C204C617366
:1006D00074204C696E653A20004C696E65204E7539
:1006E0006D626572206973206E6F74204C61737443
:1006F000204C696E65204E756D6265722B312C2021
:100700004C617374204C696E653A20004D31313074
:10071000002020506C616E6E65724275666665726F
:1007200042797465733A20002046726565204D65F4
:100730006D6F72793A20004A616E20203920323084
:10074000313700436F6D70696C65643A2000286E24
:100750006F6E652C2064656661756C7420636F6EC6
:100760006669672900207C20417574686F723A20A1
:10077000004A616E20203920323031372031363A3C
:1007800034373A343600204C6173742055706461FC
:100790007465643A200020312E302E322B004D61DA
:1007A000726C696E0020536F6674776172652052B7
:1007B0006573657400205761746368646F672052C5
:1007C00065736574002042726F776E206F757420B8
:1007D0005265736574002045787465726E616C2093
:1007E000526573657400506F77657255700073744D
:1007F00061727400FFFFFF0000A0400000A04000F5
:100800000000400000AF430000AF4300001644006A
:1008100000000000000000000000000000AF4300E6
:1008200000AF43000016440000000000000000007C
:100830000000006563686F3A004572726F723A009B
:1008400020746F6F206C6F6E67206578747275739B
:10085000696F6E2070726576656E746564002063E2
:100860006F6C6420657874727573696F6E20707236
:100870006576656E7465640045303A20005A3A200A
:1008800000593A2000583A20004D53312C4D533234
:100890002050696E730A00205A3A0020593A00200D
:1008A000583A00656E6473746F7073206869743AA7
:1008B000200024F4D43050C38E20C2A24017828B73
:1008C0007011127A910D816CD90AA861E108C7589C
:1008D0006607615143061E4B5D05C145A7041A41D9
:1008E0001104093D9803713931034036DB02653349
:1008F0009102D4305402802E1D02632CEE01752A21
:10090000C501B028A001102781018F2564012B2487
:100910004B01E0223401AC211F018D200D01801F0D
:10092000FC00841EED00971DDF00B81CD200E61B02
:10093000C600201BBC00641AB200B219A8000A1934
:10094000A0006A189900D117910040178B00B516C6
:10095000840031167E00B31579003A157300C71470
:100960006F0058146A00EE136600881363002513A5
:100970005E00C7125B006C12570015125400C111C3
:10098000510070114F0021114B00D61049008D10FD
:1009900047004610440002104200C00F4000800F84
:1009A0003E00420F3C00060F3B00CB0E3800930E7A
:1009B00037005C0E3500270E3400F30D3200C10DF8
:1009C0003100900D3000600D2E00320D2D00050D10
:1009D0002C00D90C2B00AE0C2900850C29005C0CD6
:1009E0002700350C27000E0C2600E80B2400C40B52
:1009F0002400A00B23007D0B23005A0B2100390B90
:100A00002100180B2000F80A1F00D90A1E00BB0A9B
:100A10001E009D0A1D00800A1D00630A1C00470A73
:100A20001B002C0A1B00110A1A00F7091A00DD0925
:100A30001900C4091900AB091900920917007B09B4
:100A40001800630917004C09160036091600200922
:100A500016000A091500F5081500E0081400CC0876
:100A60001400B8081400A4081400900813007D08AE
:100A700012006B08130058081200460812003408D0
:100A80001100230811001208110001081100F007DD
:100A90001000E0071000D0071000C0071000B007DA
:100AA0000F00A107100091070E0083070F007407C5
:100AB0000F0065070E0057070E0049070E003B07A1
:100AC0000D002E070E0020070D0013070D0006076E
:100AD0000D00F9060C00ED060D00E0060C00D40632
:100AE0000C00C8060C00BC060C00B0060C00A406E6
:100AF0000B0099060C008D060B0082060B00770692
:100B00000B006C060B0061060A0057060B004C0632
:100B10000A0042060A0038060A002E060A002406C9
:100B20000A001A060A001006090007060A00FD0559
:100B30000900F4050900EB050900E2050900D905E3
:100B40000900D0050900C7050900BE050900B50563
:100B50000800AD050800A50509009C0508009405DE
:100B600008008C050800840508007C050800740551
:100B700008006C050700650508005D0507005605BF
:100B800008004E0507004705070040050800380526
:100B90000700310507002A050700230507001C058B
:100BA0000600160507000F050700080506000205E8
:100BB0000700FB040600F5040700EE040600E80445
:100BC0000600E2040700DB040600D5040600CF049B
:100BD0000600C9040600C3040600BD040600B704ED
:100BE0000600B1040500AC040600A6040600A0043B
:100BF00005009B04060095040500900406008A0485
:100C0000050085040500800406007A0405007504CB
:100C10000500700405006B0405006604050061040E
:100C200005005C04050057040500520405004D044E
:100C3000050048040500430405003E0404003A048E
:100C4000050035040500300404002C0405002704C9
:100C50000400230405001E0404001A040400160402
:100C60000500110404000D04040009040500040437
:100C7000040000040400FC030400F8030400F4036F
:100C80000400F0030400EC030400E8030400E403A0
:100C90000400E0030400DC030400D8030400D403D0
:100CA0000400D0030400CC030400C8030300C50300
:100CB000030024F404D9201BC40C5C0E9804C4095E
:100CC0005F0265077101F405F900FB04B3004804F5
:100CD0008700C10369005803550003034500BE02A5
:100CE0003A008402310053022A002902250004023E
:100CF0002000E4011C00C8011900AF011700980191
:100D000014008401130071011000610110005101F1
:100D10000E0043010D0036010B002B010B002001DA
:100D20000B00150109000C01090003010800FB007C
:100D30000800F3000800EB000700E4000600DE00F6
:100D40000600D8000600D2000600CC000500C7004F
:100D50000500C2000500BD000400B9000400B50094
:100D60000400B1000400AD000400A9000400A500C7
:100D70000300A20003009F0004009B0003009800F2
:100D800003009500020093000300900003008D0013
:100D900002008B000300880002008600020084002D
:100DA0000300810002007F0002007D0002007B0042
:100DB0000200790002007700010076000200740052
:100DC000020072000100710002006F0002006D005D
:100DD00001006C0002006A00010069000200670067
:100DE000010066000100650001006400020062006D
:100DF000010061000100600001005F0002005D0071
:100E000001005C0001005B0001005A000100590074
:100E10000100580001005700010056000100550074
:100E20000100540001005300000053000100520073
:100E3000010051000100500001004F0001004E0070
:100E400000004E0001004D0001004C0001004B006D
:100E500000004B0001004A00010049000100480069
:100E60000000480001004700010046000000460065
:100E7000010045000000450001004400010043005E
:100E80000000430001004200000042000100410058
:100E9000000041000100400001003F0000003F0051
:100EA00001003E0000003E0001003D0000003D004A
:100EB00001003C0000003C0000003C0001003B0041
:100EC00000003B0001003A0000003A000100390038
:100ED0000000390001003800000038000000380030
:100EE0000100370000003700010036000000360026
:100EF000000036000100350000003500000035001C
:100F00000100340000003400000034000100330010
:100F10000000330000003300010032000000320006
:100F200000003200010031000000310000003100FB
:100F300001003000000030000000300001002F00F0
:100F400000002F0000002F0000002F0001002E00E5
:100F500000002E0000002E0001002D0000002D00DA
:100F600000002D0000002D0001002C0000002C00CE
:100F700000002C0000002C0001002B0000002B00C2
:100F800000002B0000002B0001002A0000002A00B6
:100F900000002A0000002A000100290000002900AA
:100FA000000029000000290000002900010028009D
:100FB0000000280000002800000028000000280091
:100FC0000100270000002700000027000000270084
:100FD0000000270001002600000026000000260077
:100FE000000026000000260001002500000025006A
:100FF000000025000000250000002500000025005D
:10100000010024000000240000002400000024004F
:101010000000240001002300000023000000230042
:101020000000230000002300000023000000230034
:101030000100220000002200000022000000220027
:101040000000220000002200010021000000210019
:10105000000021000000210000002100000021000C
:1010600000002100010020000000200000002000FE
:1010700000002000000020000000200000002000F0
:101080000000200001001F0000001F0000001F00E2
:1010900000001F0000001F0000001F0000001F00D4
:1010A00001001E0000001E0000001E0000001E00C7
:1010B00000003A2045787472756465722073776910
:1010C0007463686564206F66662E204D494E5445F2
:1010D0004D50207472696767657265642021003A1B
:1010E00020457874727564657220737769746368DB
:1010F0006564206F66662E204D415854454D502042
:1011000074726967676572656420210050494420E4
:101110004175746F74756E652066696E6973686574
:1011200064212050757420746865206C617374208C
:101130004B702C204B6920616E64204B6420636FE0
:101140006E7374616E74732066726F6D2061626F6E
:10115000766520696E746F20436F6E66696775727D
:101160006174696F6E2E6800504944204175746F38
:1011700074756E65206661696C6564212074696DA3
:10118000656F75740020403A006F6B20543A006F11
:101190006B20423A00504944204175746F74756E5B
:1011A00065206661696C6564212054656D706572A7
:1011B000617475726520746F6F20686967680020BC
:1011C0004B643A2000204B693A2000204B703A20B3
:1011D0000020436C617373696320504944200020F0
:1011E00054753A2000204B753A2000206D61783A02
:1011F0002000206D696E3A200020643A20002062B1
:101200006961733A200000000A0B02090C0D0E08F8
:1012100007030401000000000000000000000000BF
:1012200000000000000000000000000000000000BE
:10123000000012111000000000000000000000007B
:10124000000000000000000000000000010210206B
:1012500020080810204010204080020102010804EC
:101260000201010204081020408080402010080480
:1012700002018004020180402010080402010804D9
:10128000020101020408102040800102040810201D
:101290004080050505050705080808080202020246
:1012A0000A0A080804040404010101010101010102
:1012B0000303030303030303040707070C0C0C0CCD
:1012C0000C0C0C0C020202020606060606060606B6
:1012D0000B0B0B0B0B0B0B0B00002000230026004D
:1012E00029002C002F00320000010000030106013C
:1012F000090100002200250028002B002E003100EB
:10130000340002010000050108010B01000021006A
:10131000240027002A002D003000330001010000C6
:10132000040107010A014E414E494E495459494EA4
:1013300046CDCCCC3D0AD7233C17B7D13877CC2B40
:10134000329595E6241FB14F0A000020410000C8E5
:101350004200401C4620BCBE4CCA1B0E5AAEC59D66
:101360007400142D11241FBECFEFD1E2DEBFCDBF1C
:1013700000E00CBF14E0A0E0B2E0EAE1F7EC00E02E
:101380000BBF02C007900D92A433B107D9F72DE02F
:10139000A4E3B4E001C01D92A534B207E1F713E164
:1013A000C4E6D3E100E006C022970109FE010BBFAD
:1013B0000E94B85DC236D10780E00807A9F70E94F5
:1013C000B3580C948B630C940000CF93DF93C3E36A
:1013D000D8E0FE018491882341F09091C00095FFF0
:1013E000FCCF8093C6003196F5CFE8E6F3E0849118
:1013F000882341F09091C00095FFFCCF8093C600F8
:101400003196F5CF8091C00085FFFCCF8AE08093B4
:10141000C600FE018491E3E3F8E0882349F090914F
:10142000C00095FFFCCF8093C60031968491F5CF24
:101430004091800C5091810C6091820C7091830CD2
:1014400080E693E061D74091840C5091850C6091C7
:10145000860C7091870C8DE593E056D74091880CEF
:101460005091890C60918A0C70918B0C8AE593E005
:101470004BD740918C0C50918D0C60918E0C7091DB
:101480008F0C87E593E040D78091C00085FFFCCFAB
:101490008AE08093C600FE018491E3E3F8E08823AC
:1014A00049F09091C00095FFFCCF8093C600319623
:1014B0008491F5CFEDE3F3E08491882341F090919E
:1014C000C00095FFFCCF8093C6003196F5CF809188
:1014D000C00085FFFCCF8AE08093C600FE018491A6
:1014E000E3E3F8E0882349F09091C00095FFFCCF3A
:1014F0008093C60031968491F5CF4091900C509125
:10150000910C6091920C7091930C84E393E0FCD663
:101510004091940C5091950C6091960C7091970CA1
:1015200081E393E0F1D64091980C5091990C609131
:101530009A0C70919B0C8EE293E0E6D640919C0C45
:1015400050919D0C60919E0C70919F0C8BE293E0EA
:10155000DBD68091C00085FFFCCF8AE08093C60077
:10156000FE018491E3E3F8E0882349F09091C00004
:1015700095FFFCCF8093C60031968491F5CFEDE0C6
:10158000F3E08491882341F09091C00095FFFCCF57
:101590008093C6003196F5CF8091C00085FFFCCFC7
:1015A0008AE08093C600FE018491E3E3F8E088239B
:1015B00049F09091C00095FFFCCF8093C600319612
:1015C0008491F5CF4091700C5091710C6091720C28
:1015D0007091730C84E093E0A8D64091740C509104
:1015E000750C6091760C7091770C81E093E09DD63C
:1015F0004091780C5091790C60917A0C70917B0C31
:101600008EEF92E092D640917C0C50917D0C6091CF
:101610007E0C70917F0C8BEF92E087D68091C0009A
:1016200085FFFCCF8AE08093C600FE018491E3E34E
:10163000F8E0882349F09091C00095FFFCCF80939B
:10164000C60031968491F5CFE6ECF2E084918823D0
:1016500041F09091C00095FFFCCF8093C600319679
:10166000F5CF8091C00085FFFCCF8AE08093C60053
:10167000FE018491E3E3F8E0882349F09091C000F3
:1016800095FFFCCF8093C60031968491F5CF4091B1
:10169000680C5091690C60916A0C70916B0C8DEB29
:1016A00092E032D64091640C5091650C6091660CCA
:1016B0007091670C8AEB92E027D68091C00085FF7D
:1016C000FCCF8AE08093C600FE018491E3E3F8E05A
:1016D000882349F09091C00095FFFCCF8093C6000D
:1016E00031968491F5CFE7E0F2E08491882341F0D0
:1016F0009091C00095FFFCCF8093C6003196F5CF46
:101700008091C00085FFFCCF8AE08093C600FE0177
:101710008491E3E3F8E0882349F09091C00095FFBD
:10172000FCCF8093C60031968491F5CF40916C0C2C
:1017300050916D0C60916E0C70916F0C8EEF91E07A
:10174000E3D54091540C5091550C6091560C70911A
:10175000570C8BEF91E0D8D54091A00C5091A10C83
:101760006091A20C7091A30C88EF91E0DED54091BE
:10177000600C5091610C6091620C7091630C85EF6C
:1017800091E0C2D540915C0C50915D0C60915E0C73
:1017900070915F0C82EF91E0B7D54091580C509159
:1017A000590C60915A0C70915B0C8FEE91E0ACD5A6
:1017B0008091C00085FFFCCF8AE08093C600FE01C7
:1017C0008491E3E3F8E0882349F09091C00095FF0D
:1017D000FCCF8093C60031968491F5CFEDEDF1E01A
:1017E0008491882341F09091C00095FFFCCF8093B5
:1017F000C6003196F5CF8091C00085FFFCCF8AE00E
:101800008093C600FE018491E3E3F8E0882349F069
:101810009091C00095FFFCCF8093C60031968491D3
:10182000F5CF4091AD065091AE066091AF06709134
:10183000B00684ED91E068D54091B1065091B206B2
:101840006091B3067091B40681ED91E05DD5409151
:10185000B5065091B6066091B7067091B8068EEC49
:1018600091E052D58091C00085FFFCCF8AE0809343
:10187000C600FE018491E3E3F8E0882349F09091EB
:10188000C00095FFFCCF8093C60031968491F5CFC0
:10189000E0ECF1E08491882341F09091C00095FF45
:1018A000FCCF8093C6003196F5CF8091C00085FFB4
:1018B000FCCF8AE08093C600FE01C491E3E3F8E028
:1018C000CC2349F08091C00085FFFCCFC093C600B7
:1018D0003196C491F5CF40916602509167026091B4
:1018E00068027091690286EB91E00ED56091620208
:1018F0007091630280916402909165020E94A055EC
:10190000AB01BC0183EB91E0FFD460915E0270916A
:101910005F0280916002909161020E94AA55AB0122
:10192000BC0180EB91E0F0D48091C00085FFFCCF3A
:101930008AE08093C600DF91CF910895AF92BF9265
:10194000CF92DF92EF92FF920F931F93CF93DF938B
:10195000CDB7DEB7E0970FB6F894DEBF0FBECDBFB0
:1019600080E1EAE6F2E0DE01919601900D928A951F
:10197000E1F780E1EAE7F2E0DE01519601900D9295
:101980008A95E1F780E1EAE8F2E0DE011196019044
:101990000D928A95E1F76E0181E2C80ED11C80E8B4
:1019A000E82E8CE0F82E8E010F5E1F4F60E97CE080
:1019B000AE014F5F5F4F90E7A92E9CE0B92E20E06B
:1019C00030E0F60181919191A191B1916F01F70100
:1019D00081939193A193B1937F01F80181919191AA
:1019E000A191B1918F01FB0181939193A193B19347
:1019F000BF01FA0181919191A191B191AF01F501DE
:101A000081939193A193B1935F012F5F3F4F243056
:101A10003105B9F60E947A4380E090E0AAE7B5E488
:101A20008093680C9093690CA0936A0CB0936B0C34
:101A30008093640C9093650CA093660CB093670C34
:101A400010926C0C10926D0C10926E0C10926F0C28
:101A500080E29EE4A0E0B0E08093A00C9093A10C03
:101A6000A093A20CB093A30C1092540C1092550C9E
:101A70001092560C1092570C80E090E0A0EAB1E46E
:101A80008093600C9093610CA093620CB093630CF4
:101A900080935C0C90935D0CA0935E0CB0935F0CF4
:101AA00080E090E0A0EAB0E48093580C9093590C49
:101AB000A0935A0CB0935B0C1092B5061092B60628
:101AC0001092B7061092B8061092B1061092B206A4
:101AD0001092B3061092B4061092AD061092AE06A4
:101AE0001092AF061092B0068AE999E9A1EBB1E431
:101AF0008093660290936702A0936802B093690294
:101B000061E77DE38AE89FE30E949B556093620250
:101B100070936302809364029093650260E070E0CA
:101B200084EE92E40E94A55560935E0270935F027A
:101B300080936002909361020E948A4D80E090E061
:101B4000A0E8BFE380935A0290935B02A0935C02EB
:101B5000B0935D021092C90680E090E0A0E4B0E48A
:101B60008093240290932502A0932602B09327022B
:101B70000E948E1AE3E3F8E08491882341F090916B
:101B8000C00095FFFCCF8093C6003196F5CFEEE8FC
:101B9000F1E08491882341F09091C00095FFFCCF43
:101BA0008093C6003196F5CF8091C00085FFFCCFB1
:101BB0008AE08093C600E0960FB6F894DEBF0FBEB1
:101BC000CDBFDF91CF911F910F91FF90EF90DF90EC
:101BD000CF90BF90AF9008951F920F920FB60F92C3
:101BE00011240BB60F922F933F934F935F936F93F4
:101BF0008F939F93EF93FF936091C6002091B5045C
:101C00003091B604C90101968F7799274091B704A6
:101C10005091B8048417950741F0F901EB5CFB4F34
:101C200060839093B6048093B504FF91EF919F91E8
:101C30008F916F915F914F913F912F910F900BBEBC
:101C40000F900FBE0F901F9018959A01AB012115B0
:101C500081EE38074105510549F182E08093C000CB
:101C600060E079E08DE390E00E94865D21503109CB
:101C700041095109CA01B90122E030E040E050E0D9
:101C80000E94865D3093C5002093C4008091C100FE
:101C900080618093C1008091C10088608093C10001
:101CA0008091C10080688093C10008951092C000A7
:101CB00020E130E0E7CF2091B7043091B804809163
:101CC000B5049091B6048217930771F0F901EB5CAB
:101CD000FB4F80812F5F3F4F2F7733273093B8041E
:101CE0002093B70490E008958FEF9FEF08958091BF
:101CF000B7049091B8049093B6048093B504089506
:101D00004F925F926F927F928F929F92AF92BF920B
:101D1000CF92DF92EF92FF920F931F93CF93DF93B7
:101D2000CDB7DEB7A0970FB6F894DEBF0FBECDBF1C
:101D30005C014115510561057105E9F420E030E0D1
:101D400040E350E060E070E0A0960FB6F894DEBF8C
:101D50000FBECDBFDF91CF911F910F91FF90EF90FC
:101D6000DF90CF90BF90AF909F908F907F906F90BB
:101D70005F904F905BC08E010F5F1F4FC12CD12C25
:101D800076014801422E512C612C712C8FEFC81A1C
:101D9000D80AE80AF80ACB01BA01A30192010E940D
:101DA000645DCA01F80161938F01A901BC0141156D
:101DB00051056105710551F7F1E0CF1AD108E1082D
:101DC000F108F401EC0DFD1D80818A3010F440E330
:101DD00001C047E3480F552747FD5095652F752FE4
:101DE00020E030E0C50122D081E0C81AD108E10826
:101DF000F108EFEFCE16DE06EE06FE0611F7A0960E
:101E00000FB6F894DEBF0FBECDBFDF91CF911F910B
:101E10000F91FF90EF90DF90CF90BF90AF909F9089
:101E20008F907F906F905F904F90089521153105AE
:101E300039F48091C00085FFFCCF4093C60008951F
:101E40002A30310509F41CC05BCFCF93DF93EC013E
:101E500020E030E04DE050E060E070E0E7DF20E0BF
:101E600030E04AE050E060E070E0CE01DF91CF91D9
:101E7000DDCF9A01AB01662757FD6095762FD6CF4F
:101E8000CF92DF92EF92FF92CF93DF93EC016A0142
:101E90007B0177FF0FC020E030E04DE250E060E0D2
:101EA00070E0C4DFF094E094D094C094C11CD11CC5
:101EB000E11CF11C2AE0B701A601CE01DF91CF9110
:101EC000FF90EF90DF90CF901BCF2115310539F4B3
:101ED0008091C00085FFFCCF4093C600089510CFCD
:101EE0009A01462F50E060E070E0EFCFCF93DF9390
:101EF000EC019A01AB0160E070E0E7DFCE01DF9119
:101F0000CF91A3CF8F929F92AF92BF92CF92DF9249
:101F1000EF92FF921F93CF93DF93EC016A017B0155
:101F2000122F20E030E0A901C701B6010E949B59A1
:101F300087FF0CC020E030E04DE250E060E070E050
:101F4000CE0174DFF7FAF094F7F8F094B12C60E06A
:101F500070E080E09FE3B11641F020E030E040E225
:101F600051E40E94A259B394F6CF9B01AC01C70182
:101F7000B6010E94C2586B017C010E940F5A4B01AE
:101F80005C010E943B5A9B01AC01C701B6010E9453
:101F9000C1586B017C012AE0B501A401CE01B0DE7D
:101FA000112361F0E1E3F4E08191882339F090910D
:101FB000C00095FFFCCF8093C600F6CF112319F126
:101FC00020E030E040E251E4C701B6010E94705CBD
:101FD0006B017C010E940A5A4B01AA2497FCA09431
:101FE000BA2CB501A401CE014BDFC501B4010E949A
:101FF0003D5A9B01AC01C701B6010E94C1586B015B
:102000007C011150DBCFDF91CF911F91FF90EF90BA
:10201000DF90CF90BF90AF909F908F90089572CF38
:10202000FC01659175918591949108952F923F924D
:102030004F925F926F927F928F929F92AF92BF92D8
:10204000CF92DF92EF92FF920F931F93CF93DF9384
:1020500000D000D0CDB7DEB71C01FC01EC50F84F2A
:1020600014919C01220F331F220F331F3E832D83B7
:102070002754394F4901F9011082118212821382CB
:1020800025EC36E041EC56E06DEB76E089EB96E02E
:102090000E94B1428D819E818D5F974FC1DF6B01A0
:1020A0007C01612F772767FD7095872F972F0E94FE
:1020B0003D5A2B013C012D813E812A57394F590150
:1020C00020E030E040EC5FE3C701B6010E94705CA5
:1020D000A30192010E94705CF50160837183828389
:1020E00093832D813E81225D3D4F3C832B83F901FB
:1020F000608171818281938160930F0270931002DD
:10210000809311029093120220E030E040E752E405
:102110000E94A25929E9C22E26E0D22E7B018C0111
:1021200022E936E04EE856E06AE876E086E896E096
:102130000E94DD380E94BF4AF4011082118212828F
:10214000138225EC36E041EC56E06DEB76E089EB4E
:1021500096E00E94B1422D813E812950384F3A834A
:102160002983C9015DDF9058A30192010E94705C30
:10217000F501608371838283938320E030E040E740
:1021800052E460910F0270911002809111029091BF
:1021900012020E94A2597B018C0122E936E04EE82E
:1021A00056E06AE876E086E896E00E94DD380E9414
:1021B000BF4A89819A8134DF9B01AC010E94C258D9
:1021C000A30192010E94705CF50160837183828398
:1021D000938320E030E040E05FE3EB81FC816081AD
:1021E0007181828193810E94705C60930F02709371
:1021F0001002809311029093120220E030E040E739
:1022000052E40E94A2597B018C0122E936E04EE89B
:1022100056E06AE876E086E896E00E94DD380E94A3
:10222000BF4A8D819E81815F974FFADE0D811E81AD
:102230000355194FF80120813181428153810E9459
:10224000C258F40160837183828393838D819E8160
:10225000895D974FE5DE2D813E812F55394F7901FC
:10226000F80120813181428153810E94C258F701D7
:1022700060837183828393838D819E81855E974F76
:10228000CFDE2D813E812C5E3D4F7901F80120810A
:102290003181428153810E94C258F701608371836A
:1022A00082839383F40180819181A281B381F501BE
:1022B00080839183A283B38310920F021092100245
:1022C00010921102109212020E945144F101E25642
:1022D000F94F81E0808326960FB6F894DEBF0FBEDB
:1022E000CDBFDF91CF911F910F91FF90EF90DF90C5
:1022F000CF90BF90AF909F908F907F906F905F90A6
:102300004F903F902F900895FC012491222341F09B
:102310003091C00035FFFCCF2093C6000196F4CF6A
:1023200022E030E084E394E07ACEFC012491222381
:1023300041F03091C00035FFFCCF2093C6000196DC
:10234000F4CF2AE030E084E394E0BFCDCF93DF9375
:102350001F921F92CDB7DEB780913F0D9091400D37
:102360009E012F5F3F4F009719F425543D4002C056
:10237000281B390B3A83298389819A810F900F900A
:10238000DF91CF910895269A2E98089566E170E026
:1023900083ED96E00E94202F60913F0270914002F1
:1023A00083ED96E00C94582FEEDF40E052EC61E0B4
:1023B00070E084E394E049DCEEEEF7E0849188235A
:1023C00041F09091C00095FFFCCF8093C6003196FC
:1023D000F5CF8091C00085FFFCCF8AE08093C600D6
:1023E00083E398E0FC012491222341F03091C00066
:1023F00035FFFCCF2093C6003196F5CF24B720FFE0
:1024000014C0E6EEF7E03491332341F04091C00070
:1024100045FFFCCF3093C6003196F5CF3091C00018
:1024200035FFFCCF3AE03093C60021FF14C0E6ED43
:10243000F7E03491332341F04091C00045FFFCCFD9
:102440003093C6003196F5CF3091C00035FFFCCFF8
:102450003AE03093C60022FF14C0E5ECF7E0349177
:10246000332341F04091C00045FFFCCF3093C600BC
:102470003196F5CF3091C00035FFFCCF3AE0309374
:10248000C60023FF14C0E5EBF7E03491332341F09D
:102490004091C00045FFFCCF3093C6003196F5CF88
:1024A0003091C00035FFFCCF3AE03093C60025FFE5
:1024B00014C0E5EAF7E02491222341F03091C000F6
:1024C00035FFFCCF2093C6003196F5CF2091C00098
:1024D00025FFFCCF2AE02093C60014BEEEE9F7E00A
:1024E0002491222341F03091C00035FFFCCF20938E
:1024F000C6003196F5CFE6E9F7E02491222341F0BA
:102500003091C00035FFFCCF2093C6003196F5CF47
:102510002091C00025FFFCCF2AE02093C600FC01DB
:102520002491E3E3F8E0222349F03091C00035FF25
:10253000FCCF2093C60031962491F5CFE6E8F7E072
:102540002491222341F03091C00035FFFCCF20932D
:10255000C6003196F5CFE1E7F7E02491222341F060
:102560003091C00035FFFCCF2093C6003196F5CFE7
:10257000E5E6F7E02491222341F03091C00035FFD9
:10258000FCCF2093C6003196F5CFEEE4F7E024911E
:10259000222341F03091C00035FFFCCF2093C600CC
:1025A0003196F5CF2091C00025FFFCCF2AE0209383
:1025B000C600E3E4F7E02491222341F03091C0000B
:1025C00035FFFCCF2093C6003196F5CFE7E3F7E067
:1025D0002491222341F03091C00035FFFCCF20939D
:1025E000C6003196F5CF2091C00025FFFCCF2AE030
:1025F0002093C600FC018491E3E3F8E0882349F0CE
:102600009091C00095FFFCCF8093C60031968491D5
:10261000F5CFE8E2F7E08491882341F09091C00083
:1026200095FFFCCF8093C6003196F5CF8FDE4AE050
:1026300050E0BC0184E394E01CDCE1E1F7E084912C
:10264000882341F09091C00095FFFCCF8093C60095
:102650003196F5CF4AE050E060ED74E084E394E019
:1026600008DC8091C00085FFFCCF8AE08093C60023
:102670001092E1041092E2041092E3041092E40438
:102680005DD90E94E5090E947A4F0E944C370E9452
:10269000D94B7CDEFFEF23ED80E3F15020408040FA
:1026A000E1F700C0000061E08AE00E94D75760E0D7
:1026B00070E08AE00C94C1568091D5049091D604C4
:1026C00060E070E001960C94DF5D8091D5049091FC
:1026D000D6044AE050E060E070E001960C94475F59
:1026E000682F772767FD70952091DF043091E00413
:1026F00040E6429FC001439F900D11248B519B4F98
:102700000E94B2609093D6048093D50421E0892B77
:1027100009F420E0822F08950E94F9556093D104B6
:102720007093D2048093D3049093D404EDE0F4E04A
:102730008491882341F09091C00095FFFCCF809355
:10274000C6003196F5CF8091C00085FFFCCF8AE0AE
:102750008093C600089584E394E0C9DAE0E1F4E0F0
:102760008491882341F09091C00095FFFCCF809325
:10277000C6003196F5CF40916A0650916B06609184
:102780006C0670916D064F5F5F4F6F4F7F4F2AE071
:1027900030E084E394E04ADB8091C00085FFFCCF09
:1027A0008AE08093C600B8CF8F929F92AF92BF927B
:1027B000CF92DF92EF92FF920F931F93CF93DF930D
:1027C0003EEDE32E33E0F32E09EB16E0C6E8D6E04B
:1027D0004CECC42E46E0D42EF70181917F0180DFBE
:1027E000882311F169DF4B015C01F60180818111C1
:1027F00003C06091650601C061E070E080E090E098
:102800000E943D5AF80120813181428153810E940A
:10281000705C9B01AC01C501B4010E94C258688381
:1028200079838A839B8309C0F80180819181A28189
:10283000B38188839983AA83BB830C5F1F4F24963F
:10284000FFEFCF1ADF0A82EEE81683E0F80621F6E2
:1028500086E446DF8823D1F02FDF6B017C01609393
:10286000760670937706809378069093790620E039
:1028700030E0A9010E949E5B181644F4C0920F023A
:10288000D0921002E0921102F0921202DF91CF91E9
:102890001F910F91FF90EF90DF90CF90BF90AF907E
:1028A0009F908F90089580DF89E41ADF882351F08C
:1028B00003DF60937A0670937B0680937C06909387
:1028C0007D0608C010927A0610927B0610927C0654
:1028D00010927D068AE404DF882351F0EDDE6093D8
:1028E0007E0670937F0680938006909381060895FC
:1028F00010927E0610927F0610928006109281063A
:102900000895CF92DF92EF92FF92CF93DF93EC0185
:10291000C090A106D090A206E090A306F090A40675
:10292000A7019601688179818A819B810E949B59C8
:1029300087FF04C0C882D982EA82FB82C090A506C4
:10294000D090A606E090A706F090A806A7019601F1
:102950006C817D818E819F810E949B5987FF04C07D
:10296000CC82DD82EE82FF8220E030E0A90160911E
:10297000A9067091AA068091AB069091AC060E94C0
:10298000C2586B017C019B01AC01688579858A8501
:102990009B850E949B5987FF04C0C886D986EA861A
:1029A000FB86C0901402D0901502E0901602F090C1
:1029B0001702A7019601688179818A819B810E9413
:1029C0009E5B181624F4C882D982EA82FB82C090EA
:1029D0001802D0901902E0901A02F0901B02A70191
:1029E00096016C817D818E819F810E949E5B18166D
:1029F00024F4CC82DD82EE82FF82C0901C02D09053
:102A00001D02E0901E02F0901F02A701960168854A
:102A100079858A859B850E949E5B181624F4C8865A
:102A2000D986EA86FB86DF91CF91FF90EF90DF9009
:102A3000CF900895CF92DF92EF92FF920F931F9362
:102A400086E896E05EDF0E94F9556093D1047093AA
:102A5000D2048093D3049093D404209186063091BD
:102A6000870640918806509189066091B906709159
:102A7000BA068091BB069091BC060E949B598111B9
:102A800079C020918A0630918B0640918C06509136
:102A90008D066091BD067091BE068091BF06909133
:102AA000C0060E949B59811165C020E030E040E7DC
:102AB00052E460910F027091100280911102909186
:102AC00012020E94A25959E9C52E56E0D52E7B016B
:102AD0008C0122E936E04EE856E06AE876E086E8C6
:102AE00096E00E94DD388091860690918706A0913D
:102AF0008806B09189068093B9069093BA06A09390
:102B0000BB06B093BC0680918A0690918B06A0917B
:102B10008C06B0918D068093BD069093BE06A0935F
:102B2000BF06B093C00680918E0690918F06A0914B
:102B30009006B09191068093C1069093C206A0932F
:102B4000C306B093C4068091920690919306A0911B
:102B50009406B09195068093C5069093C606A093FF
:102B6000C706B093C8061F910F91FF90EF90DF90BA
:102B7000CF90089560912C0270912D02882777FDE7
:102B80008095982F0E943D5A20910F02309110029B
:102B900040911102509112020E94705C20E030E0DE
:102BA00040E752E40E94A25920E030E048EC52E4B1
:102BB00088CFAF92BF92CF92DF92EF92FF920F93A6
:102BC0001F93CF93DF93D82F20917E0630917F06FD
:102BD000409180065091810660917A0670917B0643
:102BE00080917C0690917D060E94AB5BC62F172FCB
:102BF000082FF92E60912C0270912D02882777FD05
:102C00008095982F0E943D5A20910F02309110021A
:102C100040911102509112020E94705C20E030E05D
:102C200040E752E40E94A25920E030E048EC52E430
:102C30000E94A259209199062F93DF93FF920F9340
:102C40001F93CF935B016C0162E0E62E01E020E070
:102C50004AE756E066E876E089EB96E00E94243089
:102C60008091860690918706A0918806B09189068A
:102C70008093B9069093BA06A093BB06B093BC06A6
:102C800080918A0690918B06A0918C06B0918D065A
:102C90008093BD069093BE06A093BF06B093C00676
:102CA00080918E0690918F06A0919006B09191062A
:102CB0008093C1069093C206A093C306B093C40646
:102CC0008091920690919306A0919406B0919506FA
:102CD0008093C5069093C606A093C706B093C80616
:102CE0000E94F9556093D1047093D2048093D30469
:102CF0009093D4040F900F900F900F900F900F901F
:102D0000DF91CF911F910F91FF90EF90DF90CF90C7
:102D1000BF90AF900895F8940E94C04F429A1092CD
:102D20009E06419A10929F069FB7F89480910B01DE
:102D3000806880930B019FBF1092A0068D9A60E07F
:102D40008CE00E94D757E9E3F8E08491882341F0B2
:102D50009091C00095FFFCCF8093C6003196F5CFCF
:102D6000EEEEF3E08491882341F09091C00095FF4E
:102D7000FCCF8093C6003196F5CF8091C00085FFCF
:102D8000FCCF8AE08093C6007894C6E0D0E021971B
:102D900039F068EC70E080E090E00E942856F7CFB0
:102DA000F894FFCF4F925F926F927F928F929F9293
:102DB000BF92CF92DF92EF92FF920F931F93CF9328
:102DC000DF9370E6D72E04E010E0E0EFEE2EE5E0B2
:102DD000FE2EFAE0CF2EBB24B3948091B5049091DF
:102DE000B6042091B7043091B804821B930B8F77FF
:102DF0009927892B09F412C28091DB049091DC049D
:102E000004970CF00BC284E394E00E945B0E809365
:102E1000DA042091D8043091D9048A3061F08D30E1
:102E200051F08A3321F49091D704992321F02F3562
:102E300031050CF419C12115310519F41092D7048C
:102E4000EDC18091DD049091DE04D89E4001D99EB1
:102E5000900C1124F401E20FF31FEB51FB4F108291
:102E60002091D7042111FBC0FC01EF51FB4F1082D0
:102E7000E401CB51DB4F6EE470E0CE010E94B26002
:102E80000097F1F19093D6048093D5048C1B9D0B91
:102E9000880D991D4AE050E060E070E08A519B4F38
:102EA0000E94475F60936E0670936F068093700672
:102EB0009093710640906A0650906B0660906C0685
:102EC00070906D062FEF421A520A620A720AC09180
:102ED000DD04D091DE04641575058605970509F4B7
:102EE000E1C0DC9EC001DD9E900D11246CE077E016
:102EF0008B519B4F0E949860892B09F0D3C061C110
:102F00006AE270E0CE010E94B260892B09F444C0ED
:102F1000E9E3F8E08491882341F09091C00095FFA7
:102F2000FCCF8093C6003196F5CFE6E6F6E08491BB
:102F3000882341F09091C00095FFFCCF8093C6009C
:102F40003196F5CF40916A0650916B0660916C0600
:102F500070916D062AE030E084E394E00E94160F41
:102F60008091C00085FFFCCF8AE08093C60010925C
:102F7000D9041092D80452C180916E0690916F06C8
:102F8000A0917006B091710680936A0690936B06CB
:102F9000A0936C06B0936D068091DD049091DE04E1
:102FA000D89EE001D99ED00D1124CE018B519B4FAC
:102FB0004C0167E470E00E94B260009761F1909369
:102FC000D6048093D504881999098C0F9D1F60E061
:102FD00070E08A519B4F0E94DF5D0E940A5A643064
:102FE0007105C8F48091C3048823A9F0F701849186
:102FF000E0EFF5E0882349F09091C00095FFFCCF09
:103000008093C60031968491F5CF8091C00085FFF2
:10301000FCCFC092C600C091DD04D091DE04DC9EDE
:10302000C001DD9E900D11246FE972E08B519B4F22
:103030000E94BD60892B09F46EDECE010196B801B5
:103040000E94515D9093DE048093DD048091DB0447
:103050009091DC0401969093DC048093DB04109241
:10306000D9041092D804B9CE8B3311F4B092D7049E
:103070009091D7049111B1CE4091DD045091DE04BE
:10308000B9016F5F7F4F7093D9046093D804D49EC9
:10309000F001D59EF00D1124E20FF31FEB51FB4F11
:1030A00080839BCEDC9E4001DD9E900C1124C401E8
:1030B0008B519B4F3C016AE270E00E94B260009726
:1030C00089F5E9E3F8E08491882341F09091C0000C
:1030D00095FFFCCF8093C6003196F5CFE0E9F6E08E
:1030E0008491882341F09091C00095FFFCCF80939C
:1030F000C6003196F5CF40916A0650916B066091FB
:103100006C0670916D062AE030E084E394E00E9442
:10311000160F8091C00085FFFCCF8AE08093C60027
:103120001ADB25CF20E0C0E0F401E20FF11DEB51E6
:10313000FB4F30813A3219F02F5FC327F5CF9093C0
:10314000D6048093D50486199709880D991D60E0EF
:1031500070E08A519B4F0E94DF5D0E940A5AD0E0C6
:10316000C617D70709F408CFE9E3F8E0849188236C
:1031700041F09091C00095FFFCCF8093C60031963E
:10318000F5CFEAEBF6E08491882341F09091C000FE
:1031900095FFFCCF8093C6003196F5CF40916A062B
:1031A00050916B0660916C0670916D062AE030E0DC
:1031B00084E394E00E94160F8091C00085FFFCCF4D
:1031C000ACCFE9E3F8E08491882341F09091C0000E
:1031D00095FFFCCF8093C6003196F5CFE9EDF6E080
:1031E0008491882341F09091C00095FFFCCF80939B
:1031F000C6003196F5CF40916A0650916B066091FA
:103200006C0670916D062AE030E084E394E00E9441
:10321000160F8091C00085FFFCCF7FCFDF91CF914B
:103220001F910F91FF90EF90DF90CF90BF909F90F4
:103230008F907F906F905F904F900895CF92DF9224
:10324000EF92FF920F931F93CF93C82F8091DB04CF
:103250009091DC0403970CF4A5DD0E94F9550091D0
:10326000CD041091CE042091CF043091D004C090B1
:10327000D104D090D204E090D304F090D4046C191F
:103280007D098E099F09061717072807390728F4B3
:10329000012B022B032B09F03EDD40910B025091D4
:1032A0000C0260910D0270910E02452B462B472BAC
:1032B00019F10E94F9550091D1041091D204209186
:1032C000D3043091D404601B710B820B930B0091DB
:1032D0000B0210910C0220910D0230910E02061784
:1032E00017072807390740F490914B0780914A0748
:1032F000981302C0CC2349F0CF911F910F91FF90FA
:10330000EF90DF90CF900C949538429A10929E06E1
:10331000419A10929F069FB7F89480910B018068A4
:1033200080930B019FBF1092A0068D9AE5CF0E945B
:10333000C04F8091C304811134C081E08093C304E5
:1033400080916A0690916B06A0916C06B0916D0613
:103350008093660690936706A0936806B09369060B
:10336000E9E3F8E08491882341F09091C00095FF53
:10337000FCCF8093C6003196F5CFE8E7F3E0849167
:10338000882341F09091C00095FFFCCF8093C60048
:103390003196F5CF8091C00085FFFCCF8AE0809305
:1033A000C60008958091C3040895CF93DF93EC0184
:1033B000809199068093C40484E592D9811102C05A
:1033C00080E074C079D90E940F5A6093C4046623C8
:1033D000B9F3E3E3F8E08491882341F09091C000D1
:1033E00095FFFCCF8093C6003196F5CFCD36D10541
:1033F000B9F054F4C836D105B1F0C936D10509F099
:1034000045C0E9EEF2E021C0CA3DD10531F0CD3D25
:10341000D105E1F5E4EAF2E036C0EBEBF2E029C0D9
:10342000E2EDF2E01CC0E0E0F3E08191882371F16D
:103430009091C00095FFFCCF8093C600F6CF90918D
:10344000C00095FFFCCF8093C60081918111F7CF1A
:103450001DC09091C00095FFFCCF8093C600819164
:103460008111F7CF13C09091C00095FFFCCF8093DE
:10347000C60081918111F7CF09C09091C00095FFDE
:10348000FCCF8093C60081918111F7CF40E050E0DE
:103490006091C40484E394E00E94700F8091C000A6
:1034A00085FFFCCF8AE08093C60081E0DF91CF9159
:1034B0000895CF92DF92EF92FF922091C9062223C6
:1034C000F1F020E030E040E05FE30E94705C6B01CF
:1034D0007C0120E030E0A9010E949B59882379F00B
:1034E000A7019601C701B6010E94705C2BED3FE079
:1034F00049E450E40E94705C9B01AC0104C020E0F0
:1035000030E040E85FE360E070E080E89FE30E9425
:10351000A259FF90EF90DF90CF9008956091240220
:10352000709125028091260290912702C2DF60935C
:103530002002709321028093220290932302089527
:103540003F924F925F926F927F928F929F92AF9233
:10355000BF92CF92DF92EF92FF920F931F93CF9380
:10356000DF93CDB7DEB7A0970FB6F894DEBF0FBEDE
:10357000CDBF87E4B5D8882309F4ADC29DD80E9499
:103580000A5A6430710509F488C09CF461307105F1
:1035900009F450C024F4672B29F10C94692B623094
:1035A000710509F466C06330710509F46CC00C94B0
:1035B000692B6A35710509F413C254F4653171053C
:1035C00009F4B7C06C31710509F4C8C00C94692BBB
:1035D0006B35710509F415C26C35710509F423C208
:1035E0000C94692B80913E02813069F46AE570E0A9
:1035F00083ED96E00E94582F60E070E08AE00E9420
:10360000C15610923E028091C304811102C0CCD8F1
:1036100011DA0E94BF4AECEEF5E08491882311F4A0
:103620000C94692B9091C00095FFFCCF8093C6004D
:103630003196F3CF8091C30481110C94692BB4D8D7
:10364000F9D90E94BF4A80913E02811103C081E0F6
:1036500080933E02E8EEF5E08491882311F40C9407
:10366000692B9091C00095FFFCCF8093C6003196E6
:10367000F3CF8091C30481110C94692B14D981E09C
:1036800098DA0C94692B8091C30481110C94692BF6
:103690000AD980E08EDA0C94692B80E521D8882342
:1036A00031F00AD80E940F5A4B015C0103C0812CF3
:1036B000912C540183E514D8882361F00E945C1397
:1036C00020E030E04AE754E40E94705C0E940F5A08
:1036D0004B015C010E94BF4A0E94F9556B017C01BD
:1036E000C80CD91CEA1CFB1C0E94F9556093D1043C
:1036F0007093D2048093D3049093D4040E94F9551C
:103700006C157D058E059F0528F40E94AC4D80E068
:1037100095DDF4CFE4EEF5E08491882311F40C9468
:10372000692B9091C00095FFFCCF8093C600319625
:10373000F3CF6AE070E080E090E00E942856E0EE6F
:10374000F5E08491882311F40C94692B9091C000CA
:1037500095FFFCCF8093C6003196F3CF80910F0286
:1037600090911002A0911102B09112028093720602
:1037700090937306A0937406B093750680912C0203
:1037800090912D029093CB068093CA0684E690E038
:1037900090932D0280932C020E94F9556093D104DE
:1037A0007093D2048093D3049093D40481E00E9458
:1037B00058448091B9069091BA06A091BB06B09189
:1037C000BC068093860690938706A0938806B093E4
:1037D00089068091BD069091BE06A091BF06B0916A
:1037E000C00680938A0690938B06A0938C06B093B4
:1037F0008D068091C1069091C206A091C306B0913A
:10380000C40680938E0690938F06A0939006B09383
:1038100091068091C5069091C606A091C706B09109
:10382000C8068093920690939306A0939406B09353
:10383000950610920F02109210021092110210922F
:10384000120288E50E947013882311F090E00AC0EC
:1038500089E50E9470138111F9CF8AE50E947013E7
:1038600091E098279093130291110C946C2B88E5AA
:103870000E94701381110C946C2B809113028111A2
:103880000C94722B89E50E94701381110C94722B99
:1038900088E50E9470138823D1F00E946513672B7E
:1038A000682B692BA1F00E945C132091AD0630912A
:1038B000AE064091AF065091B0060E94C258609388
:1038C000B9067093BA068093BB069093BC0689E54F
:1038D0000E9470138823D1F00E946513672B682B18
:1038E000692BA1F00E945C132091B1063091B206C1
:1038F0004091B3065091B4060E94C2586093BD0631
:103900007093BE068093BF069093C0068091130209
:10391000811103C08AE50E9470138AE50E9470132A
:103920008823D1F00E946513672B682B692BA1F0C7
:103930000E945C132091B5063091B6064091B706FF
:103940005091B8060E94C2586093C1067093C20697
:103950008093C3069093C40625EC36E041EC56E014
:103960006DEB76E089EB96E00E94B14280E00E9428
:1039700058448091720690917306A0917406B0919C
:10398000750680930F0290931002A0931102B093DA
:1039900012028091CA069091CB0690932D028093DB
:1039A0002C020E94F9556093D1047093D204809345
:1039B000D3049093D4040E9451441092D0060E94E4
:1039C000BF4AECEDF5E08491882311F40C94692B47
:1039D0009091C00095FFFCCF8093C6003196F3CF45
:1039E00010926506E8EDF5E08491882311F40C94BB
:1039F000692B9091C00095FFFCCF8093C600319653
:103A0000F3CF81E080936506E4EDF5E084918823AF
:103A100011F40C94692B9091C00095FFFCCF80931A
:103A2000C6003196F3CF85E40E947013811102C065
:103A30000E94BF4A7EEDC72E73E0D72EEDEAEE2E30
:103A4000E6E0FE2E09EB16E0B12CF60181916F0144
:103A50000E947013882339F1F3E0BF120CC00E945A
:103A60005C13F801608371838283938385EC96E015
:103A70000E94554318C00E945C13F70120813181D8
:103A8000428153810E94C258F8016083718382830E
:103A9000938325EC36E041EC56E06DEB76E089EB64
:103AA00096E00E94B142B394F4E0EF0EF11C0C5F7B
:103AB0001F4F24E0B212C9CFE0EDF5E084918823D6
:103AC00011F40C94692B9091C00095FFFCCF80936A
:103AD000C6003196F3CF8DE40E947013882311F451
:103AE0000C94982A0E945C130E940A5A6937710547
:103AF00009F473C70CF07FC06535710509F4D5C5AD
:103B0000D4F56F31710509F48EC1CCF465307105BF
:103B100009F468C154F46330710509F41FC16430BD
:103B2000710509F43DC10C94692B6131710509F4EB
:103B30006DC16231710509F480C50C94692B613542
:103B4000710509F460C56CF46A32710509F4F0C1BD
:103B50006035710511F00C94692B269A2E980C94FF
:103B6000692B6335710509F463C50CF066C51092C5
:103B7000CF060C94692B6D36710509F45CC3F4F41F
:103B80006936710509F44BC254F46C35710509F4BA
:103B9000A6C56836710509F412C20C94692B6A3601
:103BA000710509F400C56B36710511F00C94692B91
:103BB00010929806109297060C94692B6337710542
:103BC00009F40EC664F46037710509F415C2623752
:103BD000710511F00C94692BE8EAF4E025C667370B
:103BE000710509F4B8C00CF0F4C66537710509F425
:103BF00005C60C94692B6D3231E0730711F40C94F7
:103C0000C2270CF04DC06C3C710509F4EEC7FCF402
:103C1000683C710509F440C754F46C38710509F427
:103C2000EDC16E3B710509F4BDC30C94692B693C71
:103C3000710509F4A3C76B3C710511F00C94692B55
:103C40000EED13E0E0E9EE2EECE0FE2EBFC76C3D7A
:103C5000710511F40C948A268CF46D3C710509F4FD
:103C6000E4C76E3C710511F00C94692B0EED13E066
:103C70007DEAE72E76E0F72E0C947B26623E7105F6
:103C800011F40C94CB26683191E0790711F40C946F
:103C900024276D3D710511F00C94692B0C94A52619
:103CA000663FE1E07E0711F40C9415293CF56E3572
:103CB00021E0720711F40C94F0296CF46E3281E06B
:103CC000780711F40C9488286F32714011F40C9429
:103CD00096280C94692B6039E1E07E0711F40C946E
:103CE000CE28653FF1E07F0711F40C9410296F3561
:103CF000714011F00C94692B0C94272A613233E047
:103D0000730711F40C94F3286CF4673F91E0790782
:103D100011F40C9418296032734011F40C94D128DA
:103D20000C94692B6335F3E07F0711F40C941B2985
:103D3000673E23E0720711F40C94832A62327340C9
:103D400011F00C94692B61E08CE00E941058EFE5B3
:103D5000F4E00C940C29E6E2F3E049C683E50E9406
:103D60007013882371F00E945C130E940A5A7093AA
:103D7000D2066093D1068AE00E94C15681E080930A
:103D8000D006ECECF5E08491882311F40C94692BB7
:103D90009091C00095FFFCCF8093C6003196F3CF81
:103DA00080E50E947013882371F00E945C130E94CA
:103DB0000A5A7093D2066093D1068AE00E94C156D7
:103DC00081E08093D006E8ECF5E08491882311F43B
:103DD0000C94692B9091C00095FFFCCF8093C60096
:103DE0003196F3CF60E070E08AE00E94C156E4ECC7
:103DF000F5E08491882311F40C94692B9091C00014
:103E000095FFFCCF8093C6003196F3CF429841983E
:103E10009FB7F89480910B018F7780930B019FBF20
:103E20008D980C94692B0E94F9556093C50470938A
:103E3000C6048093C7049093C8040091C9041091EC
:103E4000CA042091CB043091CC04601B710B820B0F
:103E5000930B28EE33E040E050E00E94645DCA011D
:103E6000B9012CE330E040E050E00E94645D7F93B4
:103E70006F933F932F9385EB95E09F938F93CE01A4
:103E800001969F938F930E94C660E3E3F8E08491CC
:103E90000FB6F894DEBF0FBECDBFE3E3F8E0882392
:103EA00049F09091C00095FFFCCF8093C6003196F9
:103EB0008491F5CFFE0131968191882339F090915C
:103EC000C00095FFFCCF8093C600F6CF8091C00064
:103ED00085FFFCCF8AE08093C60080911F0C882369
:103EE00011F40C94692B10921F0C0091990610E0AC
:103EF000000F111F0C5C124FF8016081718188273F
:103F000077FD8095982F0E943D5A2091490230916B
:103F10004A0240914B0250914C020E949E5B18163F
:103F200014F00C94692BF801118210820C94692B07
:103F300083E50E947013882311F40C94692B0E946E
:103F40005C130E940A5AF62EE72E862F9E2D8C01B6
:103F500080E50E947013882331F00F3F110509F0AE
:103F600010F40C94782B0DE010E0E6EAF3E0819178
:103F700091918017910711F40C94692B23E0EE3D89
:103F8000F207A9F70430110539F48F2D9E2D909377
:103F900098068093970604C017FF02C00C94692B03
:103FA00061E0802F0E94D7576F2D802F0E941058FC
:103FB0006F2D7E2D802F0E94C1560C94692B88E6B0
:103FC00090E0F3D981110C94692B83E50E94701362
:103FD000882371F00091C4040E945C1310E0000F6C
:103FE000111F0C5C124F0E940A5AF8017183608302
:103FF0000E94BF4F0C94692B0E948B1683E50E9490
:104000007013882311F40C94692B0E945C130E9496
:104010000A5A7093330D6093320D0C94692B89E624
:1040200090E0C3D981110C94692BEFEAF5E08491FB
:10403000882341F09091C00095FFFCCF8093C6008B
:104040003196F5CFE091C40424E0E29FF001112401
:10405000E45DF24F408151816281738121E030E063
:1040600084E394E00E940F10ECEAF5E08491882349
:1040700041F09091C00095FFFCCF8093C60031962F
:10408000F5CFE091C404F0E0EE0FFF1FEC5CF24FBF
:1040900060817181882777FD8095982F0E943D5A15
:1040A000AB01BC0121E030E084E394E00E940F10FA
:1040B000E8EAF5E08491882341F09091C00095FFF3
:1040C000FCCF8093C6003196F5CF4091260D5091DC
:1040D000270D6091280D7091290D21E030E084E3D7
:1040E00094E00E940F10E5EAF5E08491882341F006
:1040F0009091C00095FFFCCF8093C6003196F5CF1C
:104100006091320D7091330D882777FD8095982F3F
:104110000E943D5AAB01BC0121E030E084E394E011
:104120000E940F10E2EAF5E08491882341F090911B
:10413000C00095FFFCCF8093C6003196F5CF4AE0D2
:1041400050E060E070E084E394E00E94390FE0EA20
:10415000F5E08491882341F09091C00095FFFCCF59
:104160008093C6003196F5CF40912C0D50912D0DC6
:1041700060912E0D70912F0D21E030E084E394E0EA
:104180000E940F10EDE9F5E08491882341F09091B1
:10419000C00095FFFCCF8093C6003196F5CF6091AB
:1041A000340D7091350D882777FD8095982F0E94EA
:1041B0003D5AAB01BC0121E030E084E394E00E9471
:1041C0000F10E9E9F5E08491882341F09091C00057
:1041D00095FFFCCF8093C6003196F5CF8091C40443
:1041E00090E00E94A14D4AE050E0BC0184E394E0DD
:1041F0000E94390FE4E9F5E08491882341F0909121
:10420000C00095FFFCCF8093C6003196F5CF8FEFAD
:104210009FEF0E94A14D4AE050E0BC0184E394E08E
:104220000E94390F8091C00085FFFCCF8AE0809307
:10423000C6000C94CF2C8DE690E0B7D881110C9479
:10424000692B10921F0C83E50E947013882391F054
:104250000091C4040E945C1310E0000F111F0C5C5D
:10426000124F0E940A5AF8017183608381E08093A3
:104270000A0215C082E50E947013882381F0009124
:10428000C4040E945C1310E0000F111F0C5C124F5D
:104290000E940A5AF8017183608310920A0283E532
:1042A0000E947013882351F00E945C1360934902AE
:1042B00070934A0280934B0290934C0282E40E94D6
:1042C0007013882351F00E945C1360934D02709329
:1042D0004E0280934F029093500286E40E94701326
:1042E000882369F00E945C13609345027093460234
:1042F000809347029093480281E080931F0C0E94B4
:10430000BF4F0E94F9554B015C010091C40410E0BD
:10431000F801EE0FFF1FEC5CF24F6081718188277E
:1043200077FD8095982F0E943D5AF801EE0FFF1FF0
:10433000EE0FFF1FE45DF24F11E0208131814281D9
:1043400053810E949E5B18160CF010E01093B90484
:1043500010929606CC24CA94DC2C7601F8EE4F2EEF
:10436000F3E05F2E612C712CAAE03A2E8091960624
:1043700081110C947F2BFFEFCF16DF06EF06FF06AF
:1043800011F40C94942BF7FE02C00C947F2B0E9426
:10439000F9556C197D096031774210F40C94942B17
:1043A0000C947F2B83E50E947013882361F00E9498
:1043B0005C130E940A5A7093330D6093320D81E0B2
:1043C00080930A020FC082E50E947013882351F087
:1043D0000E945C130E940A5A7093330D6093320D51
:1043E00010920A020E94F9554B015C011092960648
:1043F0006091320D7091330D882777FD8095982F4D
:104400000E943D5A11E02091260D3091270D4091D8
:10441000280D5091290D0E949E5B18160CF010E09B
:104420001093B90406E815E092E8E92E95E0F92E1C
:104430002EE7C22E25E0D22E3AE0732E8091B904E9
:104440006091320D7091330D882309F489C08091F9
:104450009606811185C0882777FD8095982F0E9448
:104460003D5A2091260D3091270D4091280D5091F5
:10447000290D0E949E5B18160CF089C00E94F95508
:10448000681979098A099B09693E7340810591057C
:1044900008F460C0E091990684E0E89FF0011124DF
:1044A000E45DF24F4081518162817381F801849112
:1044B000E6E8F5E0882349F09091C00095FFFCCF35
:1044C0008093C60031968491F5CF22E030E084E3FA
:1044D00094E00E940F10F7018491E2E8F5E0882350
:1044E00049F09091C00095FFFCCF8093C6003196B3
:1044F0008491F5CF6091990670E04AE050E084E342
:1045000094E00E94390FF6018491EEE7F5E08823EC
:1045100049F09091C00095FFFCCF8093C600319682
:104520008491F5CF4091260D5091270D6091280D73
:104530007091290D21E030E084E394E00E940F1097
:104540008091C00085FFFCCF7092C6000E94F95593
:104550004B015C010E94AC4D80E00E941E196ECFA1
:10456000882777FD8095982F0E943D5A2091260D2F
:104570003091270D4091280D5091290D0E949B5993
:1045800087FF05C080910A02882309F477CF0E9433
:10459000F9556093D1047093D2048093D30490931F
:1045A000D4040C94692B83E50E947013882319F1BD
:1045B0000E945C1320E030E0A9010E949B5987FD16
:1045C0000FC00E945C1320E030E04FE753E40E94EC
:1045D0009E5B181644F00E945C130E940A5A05C0A4
:1045E00060E070E002C06FEF70E070939806609337
:1045F00097060C94692B8FEF90E090939806809328
:1046000097060C94692B0E94C04F0E94BF4A8D9A56
:104610000E94264B109298061092970668EE73E05F
:1046200080E090E00E942856269A2E9A0C94692BDE
:1046300081E08093CF060C94692B83E50E94701370
:104640008823A1F00E945C1320E030E04AE754E4A4
:104650000E94705C0E940F5A60930B0270930C02D0
:1046600080930D0290930E020C94692B88E50E94B2
:10467000701381110C94A62C89E50E94701381118E
:104680000C94A62C8AE50E94701381110C94A62C20
:1046900085E40E94701381110C94A62C0E94BF4ADD
:1046A0008D9A0E94264B0C94692B83E50E9470130F
:1046B000882311F40C94692B0E945C1320E030E0F5
:1046C0004AE754E40E94705C0E940F5A6093CD0444
:1046D0007093CE048093CF049093D004FAC72EED4C
:1046E00033E038A32F8F00E81CE0B0E98B2EBCE04C
:1046F0009B2E84E4A82E8CE0B82E312CEF8DF8A1EF
:104700008191F8A3EF8F0E947013882309F45BC096
:10471000F3E03F1251C00E945C136B017C0120E06A
:1047200030E040EA51E40E949B5987FF3FC0A70157
:104730009601F80160817181828193810E94A25962
:104740002B013C019B01AC016091580C7091590CFC
:1047500080915A0C90915B0C0E94705C6093580C95
:104760007093590C80935A0C90935B0CA3019201A7
:10477000F40160817181828193810E94705CF401F7
:104780006083718382839383F5016081718182816B
:1047900093810E943B5AA30192010E94705C0E9487
:1047A0000F5AF5016083718382839383F801C0827D
:1047B000D182E282F38207C00E945C13F801608319
:1047C00071838283938333940C5F1F4FF4E08F0EC9
:1047D000911C24E0A20EB11C34E033128FCF79C7B4
:1047E000EBEAF4E08491882309F473C79091C00048
:1047F00095FFFCCF8093C6003196F4CF8091D5040D
:104800009091D6046AE270E005960E94B26000972B
:1048100009F45FC7FC0110825CC79091C00095FF4E
:10482000FCCF8093C600319684918111F6CF4091E0
:10483000B9065091BA066091BB067091BC0622E0A1
:1048400030E084E394E00E940F10E4EAF4E0849105
:10485000882341F09091C00095FFFCCF8093C60063
:104860003196F5CF4091BD065091BE066091BF06CE
:104870007091C00622E030E084E394E00E940F10C3
:10488000E0EAF4E08491882341F09091C00095FF24
:10489000FCCF8093C6003196F5CF4091C106509170
:1048A000C2066091C3067091C40622E030E084E342
:1048B00094E00E940F10ECE9F4E08491882341F029
:1048C0009091C00095FFFCCF8093C6003196F5CF44
:1048D0004091C5065091C6066091C7067091C80602
:1048E00022E030E084E394E00E940F10E1E9F4E07C
:1048F0008491882341F09091C00095FFFCCF809374
:10490000C6003196F5CF0E94184B0E943D5A209167
:10491000800C3091810C4091820C5091830C0E944C
:10492000A259AB01BC0122E030E084E394E00E9494
:104930000F10EDE8F4E08491882341F09091C000DD
:1049400095FFFCCF8093C6003196F5CF81E00E94A1
:10495000184B0E943D5A2091840C3091850C409157
:10496000860C5091870C0E94A259AB01BC0122E039
:1049700030E084E394E00E940F10E9E8F4E08491D1
:10498000882341F09091C00095FFFCCF8093C60032
:104990003196F5CF82E00E94184B0E943D5A20913B
:1049A000880C3091890C40918A0C50918B0C0E949C
:1049B000A259AB01BC0122E030E084E394E00E9404
:1049C0000F108091C00085FFFCCF8AE08093C60065
:1049D00080C680E00E9458447CC681E00E94584412
:1049E00078C69091C00095FFFCCF8093C60081915E
:1049F0008111F7CF8091C00085FFFCCF8AE08093C2
:104A0000C600E1E8F4E08491882341F09091C00071
:104A100095FFFCCF8093C6003196F5CF7E9903C0F9
:104A2000E7E1F3E009C0E1E2F3E006C09091C000E5
:104A300095FFFCCF8093C60081918111F7CF8091C3
:104A4000C00085FFFCCF8AE08093C600E9E7F4E070
:104A50008491882341F09091C00095FFFCCF809312
:104A6000C6003196F5CF7F9903C0E7E1F3E009C0B6
:104A7000E1E2F3E006C09091C00095FFFCCF809387
:104A8000C60081918111F7CF8091C00085FFFCCFD6
:104A90008AE08093C6001DC6809199068093C40465
:104AA00084E50E947013882311F10E945C130E9418
:104AB0000F5A6093C4046623D1F0E3E3F8E08491D5
:104AC000882341F09091C00095FFFCCF8093C600F1
:104AD0003196F5CFE1E4F3E08191882309F4F9C53B
:104AE0009091C00095FFFCCF8093C600F5CF84E481
:104AF0000E947013882309F4ECC50E945C1320E027
:104B000030E0A9010E949B59811103C01092C9068F
:104B100032C00091C40410E00E945C13F801EE0F53
:104B2000FF1FEE0FFF1FEC5DFD4F608371838283DB
:104B30009383E0902402F0902502009126021091C8
:104B4000270220E030E0A901B701C8010E949B596B
:104B5000811104C0E12CF12C00E410E4C701D8015C
:104B60008093240290932502A0932602B0932702FB
:104B700081E08093C9060E948E1AABC50EED13E04A
:104B8000F0E7EF2EFCE0FF2EF80181918F010E94EB
:104B90007013882349F00E945C130E940F5AF7019A
:104BA0006083718382839383F4E0EF0EF11C23E032
:104BB000023E120749F70E947A438BC5F4E0EF0EDC
:104BC000F11C23E0023E120709F483C5F80181912C
:104BD0008F010E947013882389F30E945C13F701F0
:104BE0006083718382839383E9CF83E50E9470138E
:104BF000882351F00E945C136093680C7093690CD9
:104C000080936A0C90936B0C84E50E947013882348
:104C100009F45FC50E945C136093640C7093650C8B
:104C20008093660C9093670C54C583E50E947013C3
:104C3000882351F00E945C1360936C0C70936D0C90
:104C400080936E0C90936F0C84E50E947013882300
:104C500051F00E945C136093540C7093550C809338
:104C6000560C9093570C82E40E947013882361F0D5
:104C70000E945C130E940F5A6093A00C7093A10CC9
:104C80008093A20C9093A30C88E50E947013882354
:104C900051F00E945C136093600C7093610C8093E0
:104CA000620C9093630C8AE50E947013882351F084
:104CB0000E945C1360935C0C70935D0C80935E0C9F
:104CC00090935F0C85E40E947013882309F401C55A
:104CD0000E945C136093580C7093590C80935A0C8B
:104CE00090935B0CF6C4F4E0EF0EF11C23E0013E60
:104CF000120709F4EEC4F80181918F010E9470132C
:104D0000882389F30E945C13F70160837183828397
:104D10009383E9CF83E50E947013882341F00E94BA
:104D20005C130E940A5A70932D0260932C02E4E7F0
:104D3000F4E08491882309F4CCC49091C00095FFDD
:104D4000FCCF8093C6003196F4CF83E50E947013A8
:104D5000882309F4BEC40E945C130E940A5A6B01A6
:104D60007C0184E50E947013882381F08DED90E032
:104D70000E94D5198111ADC4E091C404F0E0EE0F9A
:104D8000FF1FE85DFD4FD182C082A3C4D0922B02E9
:104D9000C0922A029EC480E50E947013882309F401
:104DA00098C40E945C130E940A5AD62E062F172F11
:104DB00083E50E947013882331F00E945C130E94E7
:104DC0000A5A7B0103C0EE24EA94FE2CC701019627
:104DD000039708F07EC4E6EAF3E081919191801791
:104DE000910709F476C433E0EE3DF307B1F717FD00
:104DF00070C40E94BF4ACD2C60E08D2D0E94D75711
:104E00008FEFE816F80631F0EA94EF2871F000E031
:104E100010E00DC08D2D0E94455831E020E0892B17
:104E200009F030E0032F122F02C001E010E08C2DBA
:104E30000E9445588017910709F44BC40E94AC4D5D
:104E400080E00E941E19F3CF80E50E947013882332
:104E500031F00E945C130E940A5A8B0102C00FEFCE
:104E60001FEF83E50E947013882309F446C00E9457
:104E70005C130330110568F40E940A5A9801220F4E
:104E8000331F200F311FC90186549B4F0E94582F9A
:104E900020C4E3E3F8E08491882341F09091C000BE
:104EA00095FFFCCF8093C6003196F5CFEAE6F3E09C
:104EB0008191882339F09091C00095FFFCCF8093B9
:104EC000C600F6CF4AE050E0B80184E394E00E94C7
:104ED000390FE8E5F3E08191882339F09091C00023
:104EE00095FFFCCF8093C600F6CF8091C00085FF70
:104EF000FCCF8AE08093C600ECC317FDEAC3E6E668
:104F0000F3E08191882339F09091C00095FFFCCFA8
:104F10008093C600F6CFE9E6F3E08191882339F06B
:104F20009091C00095FFFCCF8093C600F6CF4AE079
:104F300050E0B80184E394E00E94390FE3EFF3E01E
:104F40008191882339F09091C00095FFFCCF809328
:104F5000C600F6CFC801880F991F800F911F865495
:104F60009B4F0E94D92F4AE050E0BC0184E394E0BB
:104F70000E94390F8091C00085FFFCCF8AE08093AA
:104F8000C600A7C380E50E947013882351F00E94D9
:104F90005C1360936602709367028093680290933B
:104FA000690289E40E947013882361F00E945C13F7
:104FB0000E949B5560936202709363028093640227
:104FC0009093650284E40E947013882361F00E942C
:104FD0005C130E94A55560935E0270935F028093FC
:104FE00060029093610283E40E947013882351F061
:104FF0000E945C1360935A0270935B0280935C0280
:1050000090935D020E948A4DE6E6F3E08191882349
:1050100039F09091C00095FFFCCF8093C600F6CF89
:10502000E1E7F3E08191882339F09091C00095FF8A
:10503000FCCF8093C600F6CF409166025091670284
:10504000609168027091690222E030E084E394E0AC
:105050000E940F10E5E7F3E08191882339F09091E9
:10506000C00095FFFCCF8093C600F6CF609162022E
:105070007091630280916402909165020E94A05534
:10508000AB01BC0122E030E084E394E00E940F1009
:10509000E9E7F3E08191882339F09091C00095FF12
:1050A000FCCF8093C600F6CF60915E0270915F02E4
:1050B00080916002909161020E94AA55AB01BC01EF
:1050C00022E030E084E394E00E940F10EDE7F3E08B
:1050D0008191882339F09091C00095FFFCCF809397
:1050E000C600F6CF40915A0250915B0260915C027B
:1050F00070915D0222E030E084E394E00E940F10A2
:105100008091C00085FFFCCF8AE08093C600E1C299
:1051100083E50E947013882319F00E945C1303C07A
:1051200060E070E0CB010E947143D3C285E40E942D
:105130007013882341F00E945C130E940A5A8B016D
:1051400077FD0AC002C000E010E0C12CD12CB6E10E
:10515000EB2EB3E4FB2E06C0C12CD12CACE8EA2E1A
:10516000A2E4FA2E83E50E947013882321F00E94A6
:105170005C136B017C0183E40E947013882331F07F
:105180000E945C130E940A5A9B0102C025E030E095
:10519000A801C701B6010E94DA4F9BC20E94BF4A14
:1051A00098C280E50E947013882341F00E945C132E
:1051B0000E940A5A7093400260933F0260913F023E
:1051C0007091400283ED96E073D6E1E7F4E08491BC
:1051D000882309F47EC29091C00095FFFCCF809394
:1051E000C6003196F4CF60E08CE00E941058E8E6EB
:1051F000F4E08491882309F46CC29091C00095FF7B
:10520000FCCF8093C6003196F4CF9091C00095FFFB
:10521000FCCF8093C600319684918111F6CF59C29C
:105220000E949E0C0E94E50954C20E949E0C51C22D
:105230000E94E5094EC28AE50E947013882309F492
:1052400097C00E945C136B017C0120E030E040E7D6
:1052500051EC0E949E5B87FD3FC020E030E040EAB9
:1052600050ECC701B6010E949B591816ACF1F7FA31
:10527000F094F7F8F094C0929A06D0929B06E092D0
:105280009C06F0929D06E3E3F8E08491882341F0C8
:105290009091C00095FFFCCF8093C6003196F5CF6A
:1052A000E3E5F4E08491882341F09091C00095FFFC
:1052B000FCCF8093C6003196F5CF8091C00085FF6A
:1052C000FCCF8AE08093C6008091C00085FFFCCFB0
:1052D0008AE08093C600FDC1E3E3F8E0849188236F
:1052E00041F09091C00095FFFCCF8093C6003196AD
:1052F000F5CFEAE4F4E08491882341F09091C00076
:1053000095FFFCCF8093C6003196F5CFE2E4F4E040
:105310008491882341F09091C00095FFFCCF809349
:10532000C6003196F5CF4AE050E061EF7FEF84E3AD
:1053300094E00E94390FEAE3F4E08491882341F07D
:105340009091C00095FFFCCF8093C6003196F5CFB9
:105350004AE050E06BEF7FEF84E394E00E94390F66
:105360008091C00085FFFCCF8AE08093C600B1C168
:10537000E3E3F8E08491882341F09091C00095FF29
:10538000FCCF8093C6003196F5CFEEE2F4E0849135
:10539000882341F09091C00095FFFCCF8093C60018
:1053A0003196F5CF8091C00085FFFCCF8AE08093D5
:1053B000C60040919A0650919B0660919C067091A0
:1053C0009D06705822E030E084E394E00E940F10C4
:1053D0008091C00085FFFCCF8AE08093C60079C130
:1053E00083E50E947013811104C00EED13E0F12CCF
:1053F00010C010E00E945C130E940F5A812F0E947F
:10540000774B1F5F1530B1F7F0CFF394F4E0FF1640
:1054100079F0F80181918F010E9470138823A9F31C
:105420000E945C130E940F5A8F2D0E94774BEDCF84
:1054300082E40E947013882339F00E945C130E945A
:105440000F5A84E00E94774B0E94AB4C42C183E527
:105450000E947013882309F453C00E945C130E94B9
:105460000A5A6130710541F06230710509F048C097
:105470000EED13E0F12C25C00EED13E0F12CF80138
:1054800081918F010E947013882341F00E945C1368
:105490000E940A5A4FEF8F2D0E94394BF394F4E08B
:1054A000FF12EDCF82E40E947013882349F10E941D
:1054B0005C130E940A5A4FEF20C0F394F4E0FF16E9
:1054C00089F0F80181918F010E9470138823A9F35C
:1054D0000E945C130E940A5A462F6FEF8F2D0E9484
:1054E000394BEBCF82E40E947013882349F00E946D
:1054F0005C130E940A5A462F6FEF84E00E94394BDA
:105500000E94AB4CE6C01092C30480916606909155
:105510006706A0916806B091690680936A06909329
:105520006B06A0936C06B0936D060E94AB13D1C0BE
:1055300084E50E947013882309F487C00E945C13DD
:105540000E940F5A6093C4046623A9F1E3E3F8E0D4
:105550008491882341F09091C00095FFFCCF809307
:10556000C6003196F5CFE1E8F3E08191882339F068
:105570009091C00095FFFCCF8093C600F6CF40E02D
:1055800050E06091C40484E394E00E94700FE3E86B
:10559000F3E08191882339F09091C00095FFFCCF12
:1055A0008093C600F6CF8091C00085FFFCCF8AE0D3
:1055B0008093C6008EC086E40E9470138823D9F0C1
:1055C0000E945C136B017C016093760670937706F2
:1055D000809378069093790620E030E0A9010E943C
:1055E0009E5B181644F4C0920F02D0921002E09213
:1055F0001102F0921202E3E3F8E08491882341F073
:105600009091C00095FFFCCF8093C6003196F5CFF6
:10561000E4E9F3E08191882339F09091C00095FF8F
:10562000FCCF8093C600F6CF6091990670E04AE007
:1056300050E084E394E00E94390F8091C00085FF20
:10564000FCCF8AE08093C60044C0E3E3F8E0849195
:10565000882341F09091C00095FFFCCF8093C60055
:105660003196F5CFEBE1F4E08491882341F09091FD
:10567000C00095FFFCCF8093C6003196F5CF809196
:10568000DF049091E00420E6289FF001299FF00DAF
:105690001124EB51FB4F8191882339F09091C00088
:1056A00095FFFCCF8093C600F6CFE9E1F4E084914A
:1056B000882341F09091C00095FFFCCF8093C600F5
:1056C0003196F5CF8091C00085FFFCCF8AE08093B2
:1056D000C6000E948C1363C180E090E00E94161007
:1056E0000C943D1C81E090E00E9416100C94481C24
:1056F0000E945C130E940A5A8B010C94B51F0E94F1
:10570000F9556093C9047093CA048093CB049093B5
:10571000CC040E94F9556093D1047093D204809315
:10572000D3049093D404D5CF0E94F9556819790910
:105730008A099B09693E73408105910508F479C087
:10574000E1E9F5E08491882341F09091C00095FF54
:10575000FCCF8093C6003196F5CFE091C40424E0DD
:10576000E29FF0011124E45DF24F4081518162819A
:10577000738121E030E084E394E00E940F10EDE8B3
:10578000F5E08491882341F09091C00095FFFCCF13
:105790008093C6003196F5CF6091C40470E04AE072
:1057A00050E084E394E00E94390FE9E8F5E0849149
:1057B000882341F09091C00095FFFCCF8093C600F4
:1057C0003196F5CFF7FE03C0EFE3F3E025C00E946A
:1057D000F9558B019C01C701B601605F784D8F4F71
:1057E0009F4F601B710B820B930BA30192010E94D0
:1057F000645DBA01A9012AE030E084E394E00E94EC
:10580000650F8091C00085FFFCCF0DC09091C00056
:1058100095FFFCCF8093C60081918111F7CF8091D5
:10582000C00085FFFCCF3092C6000E94F9554B01A5
:105830005C010E94AC4D80E00E941E19FFEFCF1664
:10584000DF06EF06FF0609F046C08091B904E0913B
:10585000C404F0E08F01000F111F000F111F045D41
:10586000124FEE0FFF1FEC5CF24F608171818823B5
:10587000C9F0882777FD8095982F0E943D5A20E037
:1058800030E040E85FE30E94C1589B01AC01F801A1
:1058900060817181828193810E949E5B87FF50C0ED
:1058A0000C94B621882777FD8095982F0E943D5A49
:1058B00020E030E040E85FE30E94C2589B01AC0169
:1058C000F80160817181828193810E949B59181631
:1058D000BCF50C94B621F7FE02C00C94B621E09101
:1058E000C404F0E08F01000F111F000F111F045DB1
:1058F000124FEE0FFF1FEC5CF24F60817181882721
:1059000077FD8095982F0E943D5A9B01AC01F801CC
:1059100060817181828193810E94C1580E940A5ADC
:1059200097FF07C090958095709561957F4F8F4F39
:105930009F4F643071058105910514F40C94B621D4
:105940000E94F9556B017C010C94B6210E94BF4A5C
:1059500088E50E947013882319F0429A10929E06DF
:1059600089E50E947013882319F0419A10929F06CE
:105970008AE50E947013882351F09FB7F8948091B4
:105980000B01806880930B019FBF1092A00685E4F5
:105990000E947013882309F49CCE8D9A9ACEA0960B
:1059A0000FB6F894DEBF0FBECDBFDF91CF911F9130
:1059B0000F91FF90EF90DF90CF90BF90AF909F90AE
:1059C0008F907F906F905F904F903F90089580915F
:1059D000DB049091DC04039714F40E94D2168091AA
:1059E000DB049091DC04892BC1F00E94A01A809105
:1059F000DB049091DC0401979093DC048093DB043A
:105A00008091DF049091E004019664E070E00E94D0
:105A1000515D9093E0048093DF040E94AC4D80E0E0
:105A20000E941E190C94C24383ED96E051D18AEB7B
:105A300094E04ED18DEB94E04BD180EC94E048C1E2
:105A4000CF92DF92EF92FF920F931F93CF93DF934A
:105A50006C018B017A01EC01C952D94F888187FF13
:105A600004C0FB011182108223C02CE02C9DC001D8
:105A70002D9D900D11242881AC01420F511D27FD51
:105A80005A952091D60630E0421753078CF42881AE
:105A9000AC01420F511D27FD5A959A01FA01EE0FF4
:105AA000FF1FE20FF31FE652F94F208126FD19C0B8
:105AB00088818F5F88838CE08C9D90018D9D300D57
:105AC00011248881A901480F511D87FD5A958091A5
:105AD000D60690E048175907B4F488818C303CF121
